{
	"contracts/Structs.sol": {
		"Structs": {
			"abi": [
				{
					"inputs": [
						{
							"internalType": "string",
							"name": "_name",
							"type": "string"
						},
						{
							"internalType": "uint256",
							"name": "_age",
							"type": "uint256"
						}
					],
					"name": "create1",
					"outputs": [],
					"stateMutability": "nonpayable",
					"type": "function"
				},
				{
					"inputs": [],
					"name": "createXiaoLi",
					"outputs": [],
					"stateMutability": "nonpayable",
					"type": "function"
				},
				{
					"inputs": [
						{
							"internalType": "uint256",
							"name": "",
							"type": "uint256"
						}
					],
					"name": "personArr",
					"outputs": [
						{
							"internalType": "string",
							"name": "name",
							"type": "string"
						},
						{
							"internalType": "uint256",
							"name": "age",
							"type": "uint256"
						}
					],
					"stateMutability": "view",
					"type": "function"
				}
			],
			"devdoc": {
				"kind": "dev",
				"methods": {},
				"version": 1
			},
			"evm": {
				"assembly": "    /* \"contracts/Structs.sol\":58:427  contract Structs {... */\n  mstore(0x40, 0x80)\n  callvalue\n  dup1\n  iszero\n  tag_1\n  jumpi\n  0x00\n  dup1\n  revert\ntag_1:\n  pop\n  dataSize(sub_0)\n  dup1\n  dataOffset(sub_0)\n  0x00\n  codecopy\n  0x00\n  return\nstop\n\nsub_0: assembly {\n        /* \"contracts/Structs.sol\":58:427  contract Structs {... */\n      mstore(0x40, 0x80)\n      callvalue\n      dup1\n      iszero\n      tag_1\n      jumpi\n      0x00\n      dup1\n      revert\n    tag_1:\n      pop\n      jumpi(tag_2, lt(calldatasize, 0x04))\n      shr(0xe0, calldataload(0x00))\n      dup1\n      0x16131ffe\n      eq\n      tag_3\n      jumpi\n      dup1\n      0x64d93fc8\n      eq\n      tag_4\n      jumpi\n      dup1\n      0xb3689a8f\n      eq\n      tag_5\n      jumpi\n    tag_2:\n      0x00\n      dup1\n      revert\n        /* \"contracts/Structs.sol\":300:424  function createXiaoLi() public {... */\n    tag_3:\n      tag_6\n      tag_7\n      jump\t// in\n    tag_6:\n      stop\n        /* \"contracts/Structs.sol\":182:295  function create1(string calldata _name, uint256 _age) public {... */\n    tag_4:\n      tag_8\n      0x04\n      dup1\n      calldatasize\n      sub\n      dup2\n      add\n      swap1\n      tag_9\n      swap2\n      swap1\n      tag_10\n      jump\t// in\n    tag_9:\n      tag_11\n      jump\t// in\n    tag_8:\n      stop\n        /* \"contracts/Structs.sol\":150:175  Person[] public personArr */\n    tag_5:\n      tag_12\n      0x04\n      dup1\n      calldatasize\n      sub\n      dup2\n      add\n      swap1\n      tag_13\n      swap2\n      swap1\n      tag_14\n      jump\t// in\n    tag_13:\n      tag_15\n      jump\t// in\n    tag_12:\n      mload(0x40)\n      tag_16\n      swap3\n      swap2\n      swap1\n      tag_17\n      jump\t// in\n    tag_16:\n      mload(0x40)\n      dup1\n      swap2\n      sub\n      swap1\n      return\n        /* \"contracts/Structs.sol\":300:424  function createXiaoLi() public {... */\n    tag_7:\n        /* \"contracts/Structs.sol\":341:361  Person memory xiaoLi */\n      0x00\n        /* \"contracts/Structs.sol\":364:385  Person(\"Xiao Li\", 18) */\n      mload(0x40)\n      dup1\n      0x40\n      add\n      0x40\n      mstore\n      dup1\n      mload(0x40)\n      dup1\n      0x40\n      add\n      0x40\n      mstore\n      dup1\n      0x07\n      dup2\n      mstore\n      0x20\n      add\n      0x5869616f204c6900000000000000000000000000000000000000000000000000\n      dup2\n      mstore\n      pop\n      dup2\n      mstore\n      0x20\n      add\n        /* \"contracts/Structs.sol\":382:384  18 */\n      0x12\n        /* \"contracts/Structs.sol\":364:385  Person(\"Xiao Li\", 18) */\n      dup2\n      mstore\n      pop\n        /* \"contracts/Structs.sol\":341:385  Person memory xiaoLi = Person(\"Xiao Li\", 18) */\n      swap1\n      pop\n        /* \"contracts/Structs.sol\":395:404  personArr */\n      0x00\n        /* \"contracts/Structs.sol\":410:416  xiaoLi */\n      dup2\n        /* \"contracts/Structs.sol\":395:417  personArr.push(xiaoLi) */\n      swap1\n      dup1\n      0x01\n      dup2\n      sload\n      add\n      dup1\n      dup3\n      sstore\n      dup1\n      swap2\n      pop\n      pop\n      0x01\n      swap1\n      sub\n      swap1\n      0x00\n      mstore\n      keccak256(0x00, 0x20)\n      swap1\n      0x02\n      mul\n      add\n      0x00\n      swap1\n      swap2\n      swap1\n      swap2\n      swap1\n      swap2\n      pop\n      0x00\n      dup3\n      add\n      mload\n      dup2\n      0x00\n      add\n      swap1\n      dup2\n      tag_20\n      swap2\n      swap1\n      tag_21\n      jump\t// in\n    tag_20:\n      pop\n      0x20\n      dup3\n      add\n      mload\n      dup2\n      0x01\n      add\n      sstore\n      pop\n      pop\n        /* \"contracts/Structs.sol\":331:424  {... */\n      pop\n        /* \"contracts/Structs.sol\":300:424  function createXiaoLi() public {... */\n      jump\t// out\n        /* \"contracts/Structs.sol\":182:295  function create1(string calldata _name, uint256 _age) public {... */\n    tag_11:\n        /* \"contracts/Structs.sol\":253:262  personArr */\n      0x00\n        /* \"contracts/Structs.sol\":268:287  Person(_name, _age) */\n      mload(0x40)\n      dup1\n      0x40\n      add\n      0x40\n      mstore\n      dup1\n        /* \"contracts/Structs.sol\":275:280  _name */\n      dup6\n      dup6\n        /* \"contracts/Structs.sol\":268:287  Person(_name, _age) */\n      dup1\n      dup1\n      0x1f\n      add\n      0x20\n      dup1\n      swap2\n      div\n      mul\n      0x20\n      add\n      mload(0x40)\n      swap1\n      dup2\n      add\n      0x40\n      mstore\n      dup1\n      swap4\n      swap3\n      swap2\n      swap1\n      dup2\n      dup2\n      mstore\n      0x20\n      add\n      dup4\n      dup4\n      dup1\n      dup3\n      dup5\n      calldatacopy\n      0x00\n      dup2\n      dup5\n      add\n      mstore\n      not(0x1f)\n      0x1f\n      dup3\n      add\n      and\n      swap1\n      pop\n      dup1\n      dup4\n      add\n      swap3\n      pop\n      pop\n      pop\n      pop\n      pop\n      pop\n      pop\n      dup2\n      mstore\n      0x20\n      add\n        /* \"contracts/Structs.sol\":282:286  _age */\n      dup4\n        /* \"contracts/Structs.sol\":268:287  Person(_name, _age) */\n      dup2\n      mstore\n      pop\n        /* \"contracts/Structs.sol\":253:288  personArr.push(Person(_name, _age)) */\n      swap1\n      dup1\n      0x01\n      dup2\n      sload\n      add\n      dup1\n      dup3\n      sstore\n      dup1\n      swap2\n      pop\n      pop\n      0x01\n      swap1\n      sub\n      swap1\n      0x00\n      mstore\n      keccak256(0x00, 0x20)\n      swap1\n      0x02\n      mul\n      add\n      0x00\n      swap1\n      swap2\n      swap1\n      swap2\n      swap1\n      swap2\n      pop\n      0x00\n      dup3\n      add\n      mload\n      dup2\n      0x00\n      add\n      swap1\n      dup2\n      tag_24\n      swap2\n      swap1\n      tag_21\n      jump\t// in\n    tag_24:\n      pop\n      0x20\n      dup3\n      add\n      mload\n      dup2\n      0x01\n      add\n      sstore\n      pop\n      pop\n        /* \"contracts/Structs.sol\":182:295  function create1(string calldata _name, uint256 _age) public {... */\n      pop\n      pop\n      pop\n      jump\t// out\n        /* \"contracts/Structs.sol\":150:175  Person[] public personArr */\n    tag_15:\n      0x00\n      dup2\n      dup2\n      sload\n      dup2\n      lt\n      tag_25\n      jumpi\n      0x00\n      dup1\n      revert\n    tag_25:\n      swap1\n      0x00\n      mstore\n      keccak256(0x00, 0x20)\n      swap1\n      0x02\n      mul\n      add\n      0x00\n      swap2\n      pop\n      swap1\n      pop\n      dup1\n      0x00\n      add\n      dup1\n      sload\n      tag_27\n      swap1\n      tag_28\n      jump\t// in\n    tag_27:\n      dup1\n      0x1f\n      add\n      0x20\n      dup1\n      swap2\n      div\n      mul\n      0x20\n      add\n      mload(0x40)\n      swap1\n      dup2\n      add\n      0x40\n      mstore\n      dup1\n      swap3\n      swap2\n      swap1\n      dup2\n      dup2\n      mstore\n      0x20\n      add\n      dup3\n      dup1\n      sload\n      tag_29\n      swap1\n      tag_28\n      jump\t// in\n    tag_29:\n      dup1\n      iszero\n      tag_30\n      jumpi\n      dup1\n      0x1f\n      lt\n      tag_31\n      jumpi\n      0x0100\n      dup1\n      dup4\n      sload\n      div\n      mul\n      dup4\n      mstore\n      swap2\n      0x20\n      add\n      swap2\n      jump(tag_30)\n    tag_31:\n      dup3\n      add\n      swap2\n      swap1\n      0x00\n      mstore\n      keccak256(0x00, 0x20)\n      swap1\n    tag_32:\n      dup2\n      sload\n      dup2\n      mstore\n      swap1\n      0x01\n      add\n      swap1\n      0x20\n      add\n      dup1\n      dup4\n      gt\n      tag_32\n      jumpi\n      dup3\n      swap1\n      sub\n      0x1f\n      and\n      dup3\n      add\n      swap2\n    tag_30:\n      pop\n      pop\n      pop\n      pop\n      pop\n      swap1\n      dup1\n      0x01\n      add\n      sload\n      swap1\n      pop\n      dup3\n      jump\t// out\n        /* \"#utility.yul\":88:205   */\n    tag_34:\n        /* \"#utility.yul\":197:198   */\n      0x00\n        /* \"#utility.yul\":194:195   */\n      dup1\n        /* \"#utility.yul\":187:199   */\n      revert\n        /* \"#utility.yul\":211:328   */\n    tag_35:\n        /* \"#utility.yul\":320:321   */\n      0x00\n        /* \"#utility.yul\":317:318   */\n      dup1\n        /* \"#utility.yul\":310:322   */\n      revert\n        /* \"#utility.yul\":334:451   */\n    tag_36:\n        /* \"#utility.yul\":443:444   */\n      0x00\n        /* \"#utility.yul\":440:441   */\n      dup1\n        /* \"#utility.yul\":433:445   */\n      revert\n        /* \"#utility.yul\":457:574   */\n    tag_37:\n        /* \"#utility.yul\":566:567   */\n      0x00\n        /* \"#utility.yul\":563:564   */\n      dup1\n        /* \"#utility.yul\":556:568   */\n      revert\n        /* \"#utility.yul\":580:697   */\n    tag_38:\n        /* \"#utility.yul\":689:690   */\n      0x00\n        /* \"#utility.yul\":686:687   */\n      dup1\n        /* \"#utility.yul\":679:691   */\n      revert\n        /* \"#utility.yul\":717:1270   */\n    tag_39:\n        /* \"#utility.yul\":775:783   */\n      0x00\n        /* \"#utility.yul\":785:791   */\n      dup1\n        /* \"#utility.yul\":835:838   */\n      dup4\n        /* \"#utility.yul\":828:832   */\n      0x1f\n        /* \"#utility.yul\":820:826   */\n      dup5\n        /* \"#utility.yul\":816:833   */\n      add\n        /* \"#utility.yul\":812:839   */\n      slt\n        /* \"#utility.yul\":802:924   */\n      tag_74\n      jumpi\n        /* \"#utility.yul\":843:922   */\n      tag_75\n      tag_36\n      jump\t// in\n    tag_75:\n        /* \"#utility.yul\":802:924   */\n    tag_74:\n        /* \"#utility.yul\":956:962   */\n      dup3\n        /* \"#utility.yul\":943:963   */\n      calldataload\n        /* \"#utility.yul\":933:963   */\n      swap1\n      pop\n        /* \"#utility.yul\":986:1004   */\n      0xffffffffffffffff\n        /* \"#utility.yul\":978:984   */\n      dup2\n        /* \"#utility.yul\":975:1005   */\n      gt\n        /* \"#utility.yul\":972:1089   */\n      iszero\n      tag_76\n      jumpi\n        /* \"#utility.yul\":1008:1087   */\n      tag_77\n      tag_37\n      jump\t// in\n    tag_77:\n        /* \"#utility.yul\":972:1089   */\n    tag_76:\n        /* \"#utility.yul\":1122:1126   */\n      0x20\n        /* \"#utility.yul\":1114:1120   */\n      dup4\n        /* \"#utility.yul\":1110:1127   */\n      add\n        /* \"#utility.yul\":1098:1127   */\n      swap2\n      pop\n        /* \"#utility.yul\":1176:1179   */\n      dup4\n        /* \"#utility.yul\":1168:1172   */\n      0x01\n        /* \"#utility.yul\":1160:1166   */\n      dup3\n        /* \"#utility.yul\":1156:1173   */\n      mul\n        /* \"#utility.yul\":1146:1154   */\n      dup4\n        /* \"#utility.yul\":1142:1174   */\n      add\n        /* \"#utility.yul\":1139:1180   */\n      gt\n        /* \"#utility.yul\":1136:1264   */\n      iszero\n      tag_78\n      jumpi\n        /* \"#utility.yul\":1183:1262   */\n      tag_79\n      tag_38\n      jump\t// in\n    tag_79:\n        /* \"#utility.yul\":1136:1264   */\n    tag_78:\n        /* \"#utility.yul\":717:1270   */\n      swap3\n      pop\n      swap3\n      swap1\n      pop\n      jump\t// out\n        /* \"#utility.yul\":1276:1353   */\n    tag_40:\n        /* \"#utility.yul\":1313:1320   */\n      0x00\n        /* \"#utility.yul\":1342:1347   */\n      dup2\n        /* \"#utility.yul\":1331:1347   */\n      swap1\n      pop\n        /* \"#utility.yul\":1276:1353   */\n      swap2\n      swap1\n      pop\n      jump\t// out\n        /* \"#utility.yul\":1359:1481   */\n    tag_41:\n        /* \"#utility.yul\":1432:1456   */\n      tag_82\n        /* \"#utility.yul\":1450:1455   */\n      dup2\n        /* \"#utility.yul\":1432:1456   */\n      tag_40\n      jump\t// in\n    tag_82:\n        /* \"#utility.yul\":1425:1430   */\n      dup2\n        /* \"#utility.yul\":1422:1457   */\n      eq\n        /* \"#utility.yul\":1412:1475   */\n      tag_83\n      jumpi\n        /* \"#utility.yul\":1471:1472   */\n      0x00\n        /* \"#utility.yul\":1468:1469   */\n      dup1\n        /* \"#utility.yul\":1461:1473   */\n      revert\n        /* \"#utility.yul\":1412:1475   */\n    tag_83:\n        /* \"#utility.yul\":1359:1481   */\n      pop\n      jump\t// out\n        /* \"#utility.yul\":1487:1626   */\n    tag_42:\n        /* \"#utility.yul\":1533:1538   */\n      0x00\n        /* \"#utility.yul\":1571:1577   */\n      dup2\n        /* \"#utility.yul\":1558:1578   */\n      calldataload\n        /* \"#utility.yul\":1549:1578   */\n      swap1\n      pop\n        /* \"#utility.yul\":1587:1620   */\n      tag_85\n        /* \"#utility.yul\":1614:1619   */\n      dup2\n        /* \"#utility.yul\":1587:1620   */\n      tag_41\n      jump\t// in\n    tag_85:\n        /* \"#utility.yul\":1487:1626   */\n      swap3\n      swap2\n      pop\n      pop\n      jump\t// out\n        /* \"#utility.yul\":1632:2306   */\n    tag_10:\n        /* \"#utility.yul\":1712:1718   */\n      0x00\n        /* \"#utility.yul\":1720:1726   */\n      dup1\n        /* \"#utility.yul\":1728:1734   */\n      0x00\n        /* \"#utility.yul\":1777:1779   */\n      0x40\n        /* \"#utility.yul\":1765:1774   */\n      dup5\n        /* \"#utility.yul\":1756:1763   */\n      dup7\n        /* \"#utility.yul\":1752:1775   */\n      sub\n        /* \"#utility.yul\":1748:1780   */\n      slt\n        /* \"#utility.yul\":1745:1864   */\n      iszero\n      tag_87\n      jumpi\n        /* \"#utility.yul\":1783:1862   */\n      tag_88\n      tag_34\n      jump\t// in\n    tag_88:\n        /* \"#utility.yul\":1745:1864   */\n    tag_87:\n        /* \"#utility.yul\":1931:1932   */\n      0x00\n        /* \"#utility.yul\":1920:1929   */\n      dup5\n        /* \"#utility.yul\":1916:1933   */\n      add\n        /* \"#utility.yul\":1903:1934   */\n      calldataload\n        /* \"#utility.yul\":1961:1979   */\n      0xffffffffffffffff\n        /* \"#utility.yul\":1953:1959   */\n      dup2\n        /* \"#utility.yul\":1950:1980   */\n      gt\n        /* \"#utility.yul\":1947:2064   */\n      iszero\n      tag_89\n      jumpi\n        /* \"#utility.yul\":1983:2062   */\n      tag_90\n      tag_35\n      jump\t// in\n    tag_90:\n        /* \"#utility.yul\":1947:2064   */\n    tag_89:\n        /* \"#utility.yul\":2096:2161   */\n      tag_91\n        /* \"#utility.yul\":2153:2160   */\n      dup7\n        /* \"#utility.yul\":2144:2150   */\n      dup3\n        /* \"#utility.yul\":2133:2142   */\n      dup8\n        /* \"#utility.yul\":2129:2151   */\n      add\n        /* \"#utility.yul\":2096:2161   */\n      tag_39\n      jump\t// in\n    tag_91:\n        /* \"#utility.yul\":2078:2161   */\n      swap4\n      pop\n      swap4\n      pop\n        /* \"#utility.yul\":1874:2171   */\n      pop\n        /* \"#utility.yul\":2210:2212   */\n      0x20\n        /* \"#utility.yul\":2236:2289   */\n      tag_92\n        /* \"#utility.yul\":2281:2288   */\n      dup7\n        /* \"#utility.yul\":2272:2278   */\n      dup3\n        /* \"#utility.yul\":2261:2270   */\n      dup8\n        /* \"#utility.yul\":2257:2279   */\n      add\n        /* \"#utility.yul\":2236:2289   */\n      tag_42\n      jump\t// in\n    tag_92:\n        /* \"#utility.yul\":2226:2289   */\n      swap2\n      pop\n        /* \"#utility.yul\":2181:2299   */\n      pop\n        /* \"#utility.yul\":1632:2306   */\n      swap3\n      pop\n      swap3\n      pop\n      swap3\n      jump\t// out\n        /* \"#utility.yul\":2312:2641   */\n    tag_14:\n        /* \"#utility.yul\":2371:2377   */\n      0x00\n        /* \"#utility.yul\":2420:2422   */\n      0x20\n        /* \"#utility.yul\":2408:2417   */\n      dup3\n        /* \"#utility.yul\":2399:2406   */\n      dup5\n        /* \"#utility.yul\":2395:2418   */\n      sub\n        /* \"#utility.yul\":2391:2423   */\n      slt\n        /* \"#utility.yul\":2388:2507   */\n      iszero\n      tag_94\n      jumpi\n        /* \"#utility.yul\":2426:2505   */\n      tag_95\n      tag_34\n      jump\t// in\n    tag_95:\n        /* \"#utility.yul\":2388:2507   */\n    tag_94:\n        /* \"#utility.yul\":2546:2547   */\n      0x00\n        /* \"#utility.yul\":2571:2624   */\n      tag_96\n        /* \"#utility.yul\":2616:2623   */\n      dup5\n        /* \"#utility.yul\":2607:2613   */\n      dup3\n        /* \"#utility.yul\":2596:2605   */\n      dup6\n        /* \"#utility.yul\":2592:2614   */\n      add\n        /* \"#utility.yul\":2571:2624   */\n      tag_42\n      jump\t// in\n    tag_96:\n        /* \"#utility.yul\":2561:2624   */\n      swap2\n      pop\n        /* \"#utility.yul\":2517:2634   */\n      pop\n        /* \"#utility.yul\":2312:2641   */\n      swap3\n      swap2\n      pop\n      pop\n      jump\t// out\n        /* \"#utility.yul\":2647:2746   */\n    tag_43:\n        /* \"#utility.yul\":2699:2705   */\n      0x00\n        /* \"#utility.yul\":2733:2738   */\n      dup2\n        /* \"#utility.yul\":2727:2739   */\n      mload\n        /* \"#utility.yul\":2717:2739   */\n      swap1\n      pop\n        /* \"#utility.yul\":2647:2746   */\n      swap2\n      swap1\n      pop\n      jump\t// out\n        /* \"#utility.yul\":2752:2921   */\n    tag_44:\n        /* \"#utility.yul\":2836:2847   */\n      0x00\n        /* \"#utility.yul\":2870:2876   */\n      dup3\n        /* \"#utility.yul\":2865:2868   */\n      dup3\n        /* \"#utility.yul\":2858:2877   */\n      mstore\n        /* \"#utility.yul\":2910:2914   */\n      0x20\n        /* \"#utility.yul\":2905:2908   */\n      dup3\n        /* \"#utility.yul\":2901:2915   */\n      add\n        /* \"#utility.yul\":2886:2915   */\n      swap1\n      pop\n        /* \"#utility.yul\":2752:2921   */\n      swap3\n      swap2\n      pop\n      pop\n      jump\t// out\n        /* \"#utility.yul\":2927:3066   */\n    tag_45:\n        /* \"#utility.yul\":3016:3022   */\n      dup3\n        /* \"#utility.yul\":3011:3014   */\n      dup2\n        /* \"#utility.yul\":3006:3009   */\n      dup4\n        /* \"#utility.yul\":3000:3023   */\n      mcopy\n        /* \"#utility.yul\":3057:3058   */\n      0x00\n        /* \"#utility.yul\":3048:3054   */\n      dup4\n        /* \"#utility.yul\":3043:3046   */\n      dup4\n        /* \"#utility.yul\":3039:3055   */\n      add\n        /* \"#utility.yul\":3032:3059   */\n      mstore\n        /* \"#utility.yul\":2927:3066   */\n      pop\n      pop\n      pop\n      jump\t// out\n        /* \"#utility.yul\":3072:3174   */\n    tag_46:\n        /* \"#utility.yul\":3113:3119   */\n      0x00\n        /* \"#utility.yul\":3164:3166   */\n      0x1f\n        /* \"#utility.yul\":3160:3167   */\n      not\n        /* \"#utility.yul\":3155:3157   */\n      0x1f\n        /* \"#utility.yul\":3148:3153   */\n      dup4\n        /* \"#utility.yul\":3144:3158   */\n      add\n        /* \"#utility.yul\":3140:3168   */\n      and\n        /* \"#utility.yul\":3130:3168   */\n      swap1\n      pop\n        /* \"#utility.yul\":3072:3174   */\n      swap2\n      swap1\n      pop\n      jump\t// out\n        /* \"#utility.yul\":3180:3557   */\n    tag_47:\n        /* \"#utility.yul\":3268:3271   */\n      0x00\n        /* \"#utility.yul\":3296:3335   */\n      tag_102\n        /* \"#utility.yul\":3329:3334   */\n      dup3\n        /* \"#utility.yul\":3296:3335   */\n      tag_43\n      jump\t// in\n    tag_102:\n        /* \"#utility.yul\":3351:3422   */\n      tag_103\n        /* \"#utility.yul\":3415:3421   */\n      dup2\n        /* \"#utility.yul\":3410:3413   */\n      dup6\n        /* \"#utility.yul\":3351:3422   */\n      tag_44\n      jump\t// in\n    tag_103:\n        /* \"#utility.yul\":3344:3422   */\n      swap4\n      pop\n        /* \"#utility.yul\":3431:3496   */\n      tag_104\n        /* \"#utility.yul\":3489:3495   */\n      dup2\n        /* \"#utility.yul\":3484:3487   */\n      dup6\n        /* \"#utility.yul\":3477:3481   */\n      0x20\n        /* \"#utility.yul\":3470:3475   */\n      dup7\n        /* \"#utility.yul\":3466:3482   */\n      add\n        /* \"#utility.yul\":3431:3496   */\n      tag_45\n      jump\t// in\n    tag_104:\n        /* \"#utility.yul\":3521:3550   */\n      tag_105\n        /* \"#utility.yul\":3543:3549   */\n      dup2\n        /* \"#utility.yul\":3521:3550   */\n      tag_46\n      jump\t// in\n    tag_105:\n        /* \"#utility.yul\":3516:3519   */\n      dup5\n        /* \"#utility.yul\":3512:3551   */\n      add\n        /* \"#utility.yul\":3505:3551   */\n      swap2\n      pop\n        /* \"#utility.yul\":3272:3557   */\n      pop\n        /* \"#utility.yul\":3180:3557   */\n      swap3\n      swap2\n      pop\n      pop\n      jump\t// out\n        /* \"#utility.yul\":3563:3681   */\n    tag_48:\n        /* \"#utility.yul\":3650:3674   */\n      tag_107\n        /* \"#utility.yul\":3668:3673   */\n      dup2\n        /* \"#utility.yul\":3650:3674   */\n      tag_40\n      jump\t// in\n    tag_107:\n        /* \"#utility.yul\":3645:3648   */\n      dup3\n        /* \"#utility.yul\":3638:3675   */\n      mstore\n        /* \"#utility.yul\":3563:3681   */\n      pop\n      pop\n      jump\t// out\n        /* \"#utility.yul\":3687:4110   */\n    tag_17:\n        /* \"#utility.yul\":3828:3832   */\n      0x00\n        /* \"#utility.yul\":3866:3868   */\n      0x40\n        /* \"#utility.yul\":3855:3864   */\n      dup3\n        /* \"#utility.yul\":3851:3869   */\n      add\n        /* \"#utility.yul\":3843:3869   */\n      swap1\n      pop\n        /* \"#utility.yul\":3915:3924   */\n      dup2\n        /* \"#utility.yul\":3909:3913   */\n      dup2\n        /* \"#utility.yul\":3905:3925   */\n      sub\n        /* \"#utility.yul\":3901:3902   */\n      0x00\n        /* \"#utility.yul\":3890:3899   */\n      dup4\n        /* \"#utility.yul\":3886:3903   */\n      add\n        /* \"#utility.yul\":3879:3926   */\n      mstore\n        /* \"#utility.yul\":3943:4021   */\n      tag_109\n        /* \"#utility.yul\":4016:4020   */\n      dup2\n        /* \"#utility.yul\":4007:4013   */\n      dup6\n        /* \"#utility.yul\":3943:4021   */\n      tag_47\n      jump\t// in\n    tag_109:\n        /* \"#utility.yul\":3935:4021   */\n      swap1\n      pop\n        /* \"#utility.yul\":4031:4103   */\n      tag_110\n        /* \"#utility.yul\":4099:4101   */\n      0x20\n        /* \"#utility.yul\":4088:4097   */\n      dup4\n        /* \"#utility.yul\":4084:4102   */\n      add\n        /* \"#utility.yul\":4075:4081   */\n      dup5\n        /* \"#utility.yul\":4031:4103   */\n      tag_48\n      jump\t// in\n    tag_110:\n        /* \"#utility.yul\":3687:4110   */\n      swap4\n      swap3\n      pop\n      pop\n      pop\n      jump\t// out\n        /* \"#utility.yul\":4116:4296   */\n    tag_49:\n        /* \"#utility.yul\":4164:4241   */\n      0x4e487b7100000000000000000000000000000000000000000000000000000000\n        /* \"#utility.yul\":4161:4162   */\n      0x00\n        /* \"#utility.yul\":4154:4242   */\n      mstore\n        /* \"#utility.yul\":4261:4265   */\n      0x41\n        /* \"#utility.yul\":4258:4259   */\n      0x04\n        /* \"#utility.yul\":4251:4266   */\n      mstore\n        /* \"#utility.yul\":4285:4289   */\n      0x24\n        /* \"#utility.yul\":4282:4283   */\n      0x00\n        /* \"#utility.yul\":4275:4290   */\n      revert\n        /* \"#utility.yul\":4302:4482   */\n    tag_50:\n        /* \"#utility.yul\":4350:4427   */\n      0x4e487b7100000000000000000000000000000000000000000000000000000000\n        /* \"#utility.yul\":4347:4348   */\n      0x00\n        /* \"#utility.yul\":4340:4428   */\n      mstore\n        /* \"#utility.yul\":4447:4451   */\n      0x22\n        /* \"#utility.yul\":4444:4445   */\n      0x04\n        /* \"#utility.yul\":4437:4452   */\n      mstore\n        /* \"#utility.yul\":4471:4475   */\n      0x24\n        /* \"#utility.yul\":4468:4469   */\n      0x00\n        /* \"#utility.yul\":4461:4476   */\n      revert\n        /* \"#utility.yul\":4488:4808   */\n    tag_28:\n        /* \"#utility.yul\":4532:4538   */\n      0x00\n        /* \"#utility.yul\":4569:4570   */\n      0x02\n        /* \"#utility.yul\":4563:4567   */\n      dup3\n        /* \"#utility.yul\":4559:4571   */\n      div\n        /* \"#utility.yul\":4549:4571   */\n      swap1\n      pop\n        /* \"#utility.yul\":4616:4617   */\n      0x01\n        /* \"#utility.yul\":4610:4614   */\n      dup3\n        /* \"#utility.yul\":4606:4618   */\n      and\n        /* \"#utility.yul\":4637:4655   */\n      dup1\n        /* \"#utility.yul\":4627:4708   */\n      tag_114\n      jumpi\n        /* \"#utility.yul\":4693:4697   */\n      0x7f\n        /* \"#utility.yul\":4685:4691   */\n      dup3\n        /* \"#utility.yul\":4681:4698   */\n      and\n        /* \"#utility.yul\":4671:4698   */\n      swap2\n      pop\n        /* \"#utility.yul\":4627:4708   */\n    tag_114:\n        /* \"#utility.yul\":4755:4757   */\n      0x20\n        /* \"#utility.yul\":4747:4753   */\n      dup3\n        /* \"#utility.yul\":4744:4758   */\n      lt\n        /* \"#utility.yul\":4724:4742   */\n      dup2\n        /* \"#utility.yul\":4721:4759   */\n      sub\n        /* \"#utility.yul\":4718:4802   */\n      tag_115\n      jumpi\n        /* \"#utility.yul\":4774:4792   */\n      tag_116\n      tag_50\n      jump\t// in\n    tag_116:\n        /* \"#utility.yul\":4718:4802   */\n    tag_115:\n        /* \"#utility.yul\":4539:4808   */\n      pop\n        /* \"#utility.yul\":4488:4808   */\n      swap2\n      swap1\n      pop\n      jump\t// out\n        /* \"#utility.yul\":4814:4955   */\n    tag_51:\n        /* \"#utility.yul\":4863:4867   */\n      0x00\n        /* \"#utility.yul\":4886:4889   */\n      dup2\n        /* \"#utility.yul\":4878:4889   */\n      swap1\n      pop\n        /* \"#utility.yul\":4909:4912   */\n      dup2\n        /* \"#utility.yul\":4906:4907   */\n      0x00\n        /* \"#utility.yul\":4899:4913   */\n      mstore\n        /* \"#utility.yul\":4943:4947   */\n      0x20\n        /* \"#utility.yul\":4940:4941   */\n      0x00\n        /* \"#utility.yul\":4930:4948   */\n      keccak256\n        /* \"#utility.yul\":4922:4948   */\n      swap1\n      pop\n        /* \"#utility.yul\":4814:4955   */\n      swap2\n      swap1\n      pop\n      jump\t// out\n        /* \"#utility.yul\":4961:5054   */\n    tag_52:\n        /* \"#utility.yul\":4998:5004   */\n      0x00\n        /* \"#utility.yul\":5045:5047   */\n      0x20\n        /* \"#utility.yul\":5040:5042   */\n      0x1f\n        /* \"#utility.yul\":5033:5038   */\n      dup4\n        /* \"#utility.yul\":5029:5043   */\n      add\n        /* \"#utility.yul\":5025:5048   */\n      div\n        /* \"#utility.yul\":5015:5048   */\n      swap1\n      pop\n        /* \"#utility.yul\":4961:5054   */\n      swap2\n      swap1\n      pop\n      jump\t// out\n        /* \"#utility.yul\":5060:5167   */\n    tag_53:\n        /* \"#utility.yul\":5104:5112   */\n      0x00\n        /* \"#utility.yul\":5154:5159   */\n      dup3\n        /* \"#utility.yul\":5148:5152   */\n      dup3\n        /* \"#utility.yul\":5144:5160   */\n      shl\n        /* \"#utility.yul\":5123:5160   */\n      swap1\n      pop\n        /* \"#utility.yul\":5060:5167   */\n      swap3\n      swap2\n      pop\n      pop\n      jump\t// out\n        /* \"#utility.yul\":5173:5566   */\n    tag_54:\n        /* \"#utility.yul\":5242:5248   */\n      0x00\n        /* \"#utility.yul\":5292:5293   */\n      0x08\n        /* \"#utility.yul\":5280:5290   */\n      dup4\n        /* \"#utility.yul\":5276:5294   */\n      mul\n        /* \"#utility.yul\":5315:5412   */\n      tag_121\n        /* \"#utility.yul\":5345:5411   */\n      0xffffffffffffffffffffffffffffffffffffffffffffffffffffffffffffffff\n        /* \"#utility.yul\":5334:5343   */\n      dup3\n        /* \"#utility.yul\":5315:5412   */\n      tag_53\n      jump\t// in\n    tag_121:\n        /* \"#utility.yul\":5433:5472   */\n      tag_122\n        /* \"#utility.yul\":5463:5471   */\n      dup7\n        /* \"#utility.yul\":5452:5461   */\n      dup4\n        /* \"#utility.yul\":5433:5472   */\n      tag_53\n      jump\t// in\n    tag_122:\n        /* \"#utility.yul\":5421:5472   */\n      swap6\n      pop\n        /* \"#utility.yul\":5505:5509   */\n      dup1\n        /* \"#utility.yul\":5501:5510   */\n      not\n        /* \"#utility.yul\":5494:5499   */\n      dup5\n        /* \"#utility.yul\":5490:5511   */\n      and\n        /* \"#utility.yul\":5481:5511   */\n      swap4\n      pop\n        /* \"#utility.yul\":5554:5558   */\n      dup1\n        /* \"#utility.yul\":5544:5552   */\n      dup7\n        /* \"#utility.yul\":5540:5559   */\n      and\n        /* \"#utility.yul\":5533:5538   */\n      dup5\n        /* \"#utility.yul\":5530:5560   */\n      or\n        /* \"#utility.yul\":5520:5560   */\n      swap3\n      pop\n        /* \"#utility.yul\":5249:5566   */\n      pop\n      pop\n        /* \"#utility.yul\":5173:5566   */\n      swap4\n      swap3\n      pop\n      pop\n      pop\n      jump\t// out\n        /* \"#utility.yul\":5572:5632   */\n    tag_55:\n        /* \"#utility.yul\":5600:5603   */\n      0x00\n        /* \"#utility.yul\":5621:5626   */\n      dup2\n        /* \"#utility.yul\":5614:5626   */\n      swap1\n      pop\n        /* \"#utility.yul\":5572:5632   */\n      swap2\n      swap1\n      pop\n      jump\t// out\n        /* \"#utility.yul\":5638:5780   */\n    tag_56:\n        /* \"#utility.yul\":5688:5697   */\n      0x00\n        /* \"#utility.yul\":5721:5774   */\n      tag_125\n        /* \"#utility.yul\":5739:5773   */\n      tag_126\n        /* \"#utility.yul\":5748:5772   */\n      tag_127\n        /* \"#utility.yul\":5766:5771   */\n      dup5\n        /* \"#utility.yul\":5748:5772   */\n      tag_40\n      jump\t// in\n    tag_127:\n        /* \"#utility.yul\":5739:5773   */\n      tag_55\n      jump\t// in\n    tag_126:\n        /* \"#utility.yul\":5721:5774   */\n      tag_40\n      jump\t// in\n    tag_125:\n        /* \"#utility.yul\":5708:5774   */\n      swap1\n      pop\n        /* \"#utility.yul\":5638:5780   */\n      swap2\n      swap1\n      pop\n      jump\t// out\n        /* \"#utility.yul\":5786:5861   */\n    tag_57:\n        /* \"#utility.yul\":5829:5832   */\n      0x00\n        /* \"#utility.yul\":5850:5855   */\n      dup2\n        /* \"#utility.yul\":5843:5855   */\n      swap1\n      pop\n        /* \"#utility.yul\":5786:5861   */\n      swap2\n      swap1\n      pop\n      jump\t// out\n        /* \"#utility.yul\":5867:6136   */\n    tag_58:\n        /* \"#utility.yul\":5977:6016   */\n      tag_130\n        /* \"#utility.yul\":6008:6015   */\n      dup4\n        /* \"#utility.yul\":5977:6016   */\n      tag_56\n      jump\t// in\n    tag_130:\n        /* \"#utility.yul\":6038:6129   */\n      tag_131\n        /* \"#utility.yul\":6087:6128   */\n      tag_132\n        /* \"#utility.yul\":6111:6127   */\n      dup3\n        /* \"#utility.yul\":6087:6128   */\n      tag_57\n      jump\t// in\n    tag_132:\n        /* \"#utility.yul\":6079:6085   */\n      dup5\n        /* \"#utility.yul\":6072:6076   */\n      dup5\n        /* \"#utility.yul\":6066:6077   */\n      sload\n        /* \"#utility.yul\":6038:6129   */\n      tag_54\n      jump\t// in\n    tag_131:\n        /* \"#utility.yul\":6032:6036   */\n      dup3\n        /* \"#utility.yul\":6025:6130   */\n      sstore\n        /* \"#utility.yul\":5943:6136   */\n      pop\n        /* \"#utility.yul\":5867:6136   */\n      pop\n      pop\n      pop\n      jump\t// out\n        /* \"#utility.yul\":6142:6215   */\n    tag_59:\n        /* \"#utility.yul\":6187:6190   */\n      0x00\n        /* \"#utility.yul\":6142:6215   */\n      swap1\n      jump\t// out\n        /* \"#utility.yul\":6221:6410   */\n    tag_60:\n        /* \"#utility.yul\":6298:6330   */\n      tag_135\n      tag_59\n      jump\t// in\n    tag_135:\n        /* \"#utility.yul\":6339:6404   */\n      tag_136\n        /* \"#utility.yul\":6397:6403   */\n      dup2\n        /* \"#utility.yul\":6389:6395   */\n      dup5\n        /* \"#utility.yul\":6383:6387   */\n      dup5\n        /* \"#utility.yul\":6339:6404   */\n      tag_58\n      jump\t// in\n    tag_136:\n        /* \"#utility.yul\":6274:6410   */\n      pop\n        /* \"#utility.yul\":6221:6410   */\n      pop\n      pop\n      jump\t// out\n        /* \"#utility.yul\":6416:6602   */\n    tag_61:\n        /* \"#utility.yul\":6476:6596   */\n    tag_138:\n        /* \"#utility.yul\":6493:6496   */\n      dup2\n        /* \"#utility.yul\":6486:6491   */\n      dup2\n        /* \"#utility.yul\":6483:6497   */\n      lt\n        /* \"#utility.yul\":6476:6596   */\n      iszero\n      tag_140\n      jumpi\n        /* \"#utility.yul\":6547:6586   */\n      tag_141\n        /* \"#utility.yul\":6584:6585   */\n      0x00\n        /* \"#utility.yul\":6577:6582   */\n      dup3\n        /* \"#utility.yul\":6547:6586   */\n      tag_60\n      jump\t// in\n    tag_141:\n        /* \"#utility.yul\":6520:6521   */\n      0x01\n        /* \"#utility.yul\":6513:6518   */\n      dup2\n        /* \"#utility.yul\":6509:6522   */\n      add\n        /* \"#utility.yul\":6500:6522   */\n      swap1\n      pop\n        /* \"#utility.yul\":6476:6596   */\n      jump(tag_138)\n    tag_140:\n        /* \"#utility.yul\":6416:6602   */\n      pop\n      pop\n      jump\t// out\n        /* \"#utility.yul\":6608:7151   */\n    tag_62:\n        /* \"#utility.yul\":6709:6711   */\n      0x1f\n        /* \"#utility.yul\":6704:6707   */\n      dup3\n        /* \"#utility.yul\":6701:6712   */\n      gt\n        /* \"#utility.yul\":6698:7144   */\n      iszero\n      tag_143\n      jumpi\n        /* \"#utility.yul\":6743:6781   */\n      tag_144\n        /* \"#utility.yul\":6775:6780   */\n      dup2\n        /* \"#utility.yul\":6743:6781   */\n      tag_51\n      jump\t// in\n    tag_144:\n        /* \"#utility.yul\":6827:6856   */\n      tag_145\n        /* \"#utility.yul\":6845:6855   */\n      dup5\n        /* \"#utility.yul\":6827:6856   */\n      tag_52\n      jump\t// in\n    tag_145:\n        /* \"#utility.yul\":6817:6825   */\n      dup2\n        /* \"#utility.yul\":6813:6857   */\n      add\n        /* \"#utility.yul\":7010:7012   */\n      0x20\n        /* \"#utility.yul\":6998:7008   */\n      dup6\n        /* \"#utility.yul\":6995:7013   */\n      lt\n        /* \"#utility.yul\":6992:7041   */\n      iszero\n      tag_146\n      jumpi\n        /* \"#utility.yul\":7031:7039   */\n      dup2\n        /* \"#utility.yul\":7016:7039   */\n      swap1\n      pop\n        /* \"#utility.yul\":6992:7041   */\n    tag_146:\n        /* \"#utility.yul\":7054:7134   */\n      tag_147\n        /* \"#utility.yul\":7110:7132   */\n      tag_148\n        /* \"#utility.yul\":7128:7131   */\n      dup6\n        /* \"#utility.yul\":7110:7132   */\n      tag_52\n      jump\t// in\n    tag_148:\n        /* \"#utility.yul\":7100:7108   */\n      dup4\n        /* \"#utility.yul\":7096:7133   */\n      add\n        /* \"#utility.yul\":7083:7094   */\n      dup3\n        /* \"#utility.yul\":7054:7134   */\n      tag_61\n      jump\t// in\n    tag_147:\n        /* \"#utility.yul\":6713:7144   */\n      pop\n      pop\n        /* \"#utility.yul\":6698:7144   */\n    tag_143:\n        /* \"#utility.yul\":6608:7151   */\n      pop\n      pop\n      pop\n      jump\t// out\n        /* \"#utility.yul\":7157:7274   */\n    tag_63:\n        /* \"#utility.yul\":7211:7219   */\n      0x00\n        /* \"#utility.yul\":7261:7266   */\n      dup3\n        /* \"#utility.yul\":7255:7259   */\n      dup3\n        /* \"#utility.yul\":7251:7267   */\n      shr\n        /* \"#utility.yul\":7230:7267   */\n      swap1\n      pop\n        /* \"#utility.yul\":7157:7274   */\n      swap3\n      swap2\n      pop\n      pop\n      jump\t// out\n        /* \"#utility.yul\":7280:7449   */\n    tag_64:\n        /* \"#utility.yul\":7324:7330   */\n      0x00\n        /* \"#utility.yul\":7357:7408   */\n      tag_151\n        /* \"#utility.yul\":7405:7406   */\n      0x00\n        /* \"#utility.yul\":7401:7407   */\n      not\n        /* \"#utility.yul\":7393:7398   */\n      dup5\n        /* \"#utility.yul\":7390:7391   */\n      0x08\n        /* \"#utility.yul\":7386:7399   */\n      mul\n        /* \"#utility.yul\":7357:7408   */\n      tag_63\n      jump\t// in\n    tag_151:\n        /* \"#utility.yul\":7353:7409   */\n      not\n        /* \"#utility.yul\":7438:7442   */\n      dup1\n        /* \"#utility.yul\":7432:7436   */\n      dup4\n        /* \"#utility.yul\":7428:7443   */\n      and\n        /* \"#utility.yul\":7418:7443   */\n      swap2\n      pop\n        /* \"#utility.yul\":7331:7449   */\n      pop\n        /* \"#utility.yul\":7280:7449   */\n      swap3\n      swap2\n      pop\n      pop\n      jump\t// out\n        /* \"#utility.yul\":7454:7749   */\n    tag_65:\n        /* \"#utility.yul\":7530:7534   */\n      0x00\n        /* \"#utility.yul\":7676:7705   */\n      tag_153\n        /* \"#utility.yul\":7701:7704   */\n      dup4\n        /* \"#utility.yul\":7695:7699   */\n      dup4\n        /* \"#utility.yul\":7676:7705   */\n      tag_64\n      jump\t// in\n    tag_153:\n        /* \"#utility.yul\":7668:7705   */\n      swap2\n      pop\n        /* \"#utility.yul\":7738:7741   */\n      dup3\n        /* \"#utility.yul\":7735:7736   */\n      0x02\n        /* \"#utility.yul\":7731:7742   */\n      mul\n        /* \"#utility.yul\":7725:7729   */\n      dup3\n        /* \"#utility.yul\":7722:7743   */\n      or\n        /* \"#utility.yul\":7714:7743   */\n      swap1\n      pop\n        /* \"#utility.yul\":7454:7749   */\n      swap3\n      swap2\n      pop\n      pop\n      jump\t// out\n        /* \"#utility.yul\":7754:9149   */\n    tag_21:\n        /* \"#utility.yul\":7871:7908   */\n      tag_155\n        /* \"#utility.yul\":7904:7907   */\n      dup3\n        /* \"#utility.yul\":7871:7908   */\n      tag_43\n      jump\t// in\n    tag_155:\n        /* \"#utility.yul\":7973:7991   */\n      0xffffffffffffffff\n        /* \"#utility.yul\":7965:7971   */\n      dup2\n        /* \"#utility.yul\":7962:7992   */\n      gt\n        /* \"#utility.yul\":7959:8015   */\n      iszero\n      tag_156\n      jumpi\n        /* \"#utility.yul\":7995:8013   */\n      tag_157\n      tag_49\n      jump\t// in\n    tag_157:\n        /* \"#utility.yul\":7959:8015   */\n    tag_156:\n        /* \"#utility.yul\":8039:8077   */\n      tag_158\n        /* \"#utility.yul\":8071:8075   */\n      dup3\n        /* \"#utility.yul\":8065:8076   */\n      sload\n        /* \"#utility.yul\":8039:8077   */\n      tag_28\n      jump\t// in\n    tag_158:\n        /* \"#utility.yul\":8124:8191   */\n      tag_159\n        /* \"#utility.yul\":8184:8190   */\n      dup3\n        /* \"#utility.yul\":8176:8182   */\n      dup3\n        /* \"#utility.yul\":8170:8174   */\n      dup6\n        /* \"#utility.yul\":8124:8191   */\n      tag_62\n      jump\t// in\n    tag_159:\n        /* \"#utility.yul\":8218:8219   */\n      0x00\n        /* \"#utility.yul\":8242:8246   */\n      0x20\n        /* \"#utility.yul\":8229:8246   */\n      swap1\n      pop\n        /* \"#utility.yul\":8274:8276   */\n      0x1f\n        /* \"#utility.yul\":8266:8272   */\n      dup4\n        /* \"#utility.yul\":8263:8277   */\n      gt\n        /* \"#utility.yul\":8291:8292   */\n      0x01\n        /* \"#utility.yul\":8286:8904   */\n      dup2\n      eq\n      tag_161\n      jumpi\n        /* \"#utility.yul\":8948:8949   */\n      0x00\n        /* \"#utility.yul\":8965:8971   */\n      dup5\n        /* \"#utility.yul\":8962:9039   */\n      iszero\n      tag_162\n      jumpi\n        /* \"#utility.yul\":9014:9023   */\n      dup3\n        /* \"#utility.yul\":9009:9012   */\n      dup8\n        /* \"#utility.yul\":9005:9024   */\n      add\n        /* \"#utility.yul\":8999:9025   */\n      mload\n        /* \"#utility.yul\":8990:9025   */\n      swap1\n      pop\n        /* \"#utility.yul\":8962:9039   */\n    tag_162:\n        /* \"#utility.yul\":9065:9132   */\n      tag_163\n        /* \"#utility.yul\":9125:9131   */\n      dup6\n        /* \"#utility.yul\":9118:9123   */\n      dup3\n        /* \"#utility.yul\":9065:9132   */\n      tag_65\n      jump\t// in\n    tag_163:\n        /* \"#utility.yul\":9059:9063   */\n      dup7\n        /* \"#utility.yul\":9052:9133   */\n      sstore\n        /* \"#utility.yul\":8921:9143   */\n      pop\n        /* \"#utility.yul\":8256:9143   */\n      jump(tag_160)\n        /* \"#utility.yul\":8286:8904   */\n    tag_161:\n        /* \"#utility.yul\":8338:8342   */\n      0x1f\n        /* \"#utility.yul\":8334:8343   */\n      not\n        /* \"#utility.yul\":8326:8332   */\n      dup5\n        /* \"#utility.yul\":8322:8344   */\n      and\n        /* \"#utility.yul\":8372:8409   */\n      tag_164\n        /* \"#utility.yul\":8404:8408   */\n      dup7\n        /* \"#utility.yul\":8372:8409   */\n      tag_51\n      jump\t// in\n    tag_164:\n        /* \"#utility.yul\":8431:8432   */\n      0x00\n        /* \"#utility.yul\":8445:8653   */\n    tag_165:\n        /* \"#utility.yul\":8459:8466   */\n      dup3\n        /* \"#utility.yul\":8456:8457   */\n      dup2\n        /* \"#utility.yul\":8453:8467   */\n      lt\n        /* \"#utility.yul\":8445:8653   */\n      iszero\n      tag_167\n      jumpi\n        /* \"#utility.yul\":8538:8547   */\n      dup5\n        /* \"#utility.yul\":8533:8536   */\n      dup10\n        /* \"#utility.yul\":8529:8548   */\n      add\n        /* \"#utility.yul\":8523:8549   */\n      mload\n        /* \"#utility.yul\":8515:8521   */\n      dup3\n        /* \"#utility.yul\":8508:8550   */\n      sstore\n        /* \"#utility.yul\":8589:8590   */\n      0x01\n        /* \"#utility.yul\":8581:8587   */\n      dup3\n        /* \"#utility.yul\":8577:8591   */\n      add\n        /* \"#utility.yul\":8567:8591   */\n      swap2\n      pop\n        /* \"#utility.yul\":8636:8638   */\n      0x20\n        /* \"#utility.yul\":8625:8634   */\n      dup6\n        /* \"#utility.yul\":8621:8639   */\n      add\n        /* \"#utility.yul\":8608:8639   */\n      swap5\n      pop\n        /* \"#utility.yul\":8482:8486   */\n      0x20\n        /* \"#utility.yul\":8479:8480   */\n      dup2\n        /* \"#utility.yul\":8475:8487   */\n      add\n        /* \"#utility.yul\":8470:8487   */\n      swap1\n      pop\n        /* \"#utility.yul\":8445:8653   */\n      jump(tag_165)\n    tag_167:\n        /* \"#utility.yul\":8681:8687   */\n      dup7\n        /* \"#utility.yul\":8672:8679   */\n      dup4\n        /* \"#utility.yul\":8669:8688   */\n      lt\n        /* \"#utility.yul\":8666:8845   */\n      iszero\n      tag_168\n      jumpi\n        /* \"#utility.yul\":8739:8748   */\n      dup5\n        /* \"#utility.yul\":8734:8737   */\n      dup10\n        /* \"#utility.yul\":8730:8749   */\n      add\n        /* \"#utility.yul\":8724:8750   */\n      mload\n        /* \"#utility.yul\":8782:8830   */\n      tag_169\n        /* \"#utility.yul\":8824:8828   */\n      0x1f\n        /* \"#utility.yul\":8816:8822   */\n      dup10\n        /* \"#utility.yul\":8812:8829   */\n      and\n        /* \"#utility.yul\":8801:8810   */\n      dup3\n        /* \"#utility.yul\":8782:8830   */\n      tag_64\n      jump\t// in\n    tag_169:\n        /* \"#utility.yul\":8774:8780   */\n      dup4\n        /* \"#utility.yul\":8767:8831   */\n      sstore\n        /* \"#utility.yul\":8689:8845   */\n      pop\n        /* \"#utility.yul\":8666:8845   */\n    tag_168:\n        /* \"#utility.yul\":8891:8892   */\n      0x01\n        /* \"#utility.yul\":8887:8888   */\n      0x02\n        /* \"#utility.yul\":8879:8885   */\n      dup9\n        /* \"#utility.yul\":8875:8889   */\n      mul\n        /* \"#utility.yul\":8871:8893   */\n      add\n        /* \"#utility.yul\":8865:8869   */\n      dup9\n        /* \"#utility.yul\":8858:8894   */\n      sstore\n        /* \"#utility.yul\":8293:8904   */\n      pop\n      pop\n      pop\n        /* \"#utility.yul\":8256:9143   */\n    tag_160:\n      pop\n        /* \"#utility.yul\":7846:9149   */\n      pop\n      pop\n      pop\n        /* \"#utility.yul\":7754:9149   */\n      pop\n      pop\n      jump\t// out\n\n    auxdata: 0xa2646970667358221220d7924fe27195afb25b6820d63d740d884257085b18af46c6652cdde809b1478a64736f6c634300081a0033\n}\n",
				"bytecode": {
					"linkReferences": {},
					"object": "6080604052348015600e575f80fd5b506107888061001c5f395ff3fe608060405234801561000f575f80fd5b506004361061003f575f3560e01c806316131ffe1461004357806364d93fc81461004d578063b3689a8f14610069575b5f80fd5b61004b61009a565b005b61006760048036038101906100629190610327565b610133565b005b610083600480360381019061007e9190610384565b6101d7565b60405161009192919061042e565b60405180910390f35b5f60405180604001604052806040518060400160405280600781526020017f5869616f204c69000000000000000000000000000000000000000000000000008152508152602001601281525090505f81908060018154018082558091505060019003905f5260205f2090600202015f909190919091505f820151815f0190816101239190610683565b5060208201518160010155505050565b5f604051806040016040528085858080601f0160208091040260200160405190810160405280939291908181526020018383808284375f81840152601f19601f82011690508083019250505050505050815260200183815250908060018154018082558091505060019003905f5260205f2090600202015f909190919091505f820151815f0190816101c59190610683565b50602082015181600101555050505050565b5f81815481106101e5575f80fd5b905f5260205f2090600202015f91509050805f018054610204906104b6565b80601f0160208091040260200160405190810160405280929190818152602001828054610230906104b6565b801561027b5780601f106102525761010080835404028352916020019161027b565b820191905f5260205f20905b81548152906001019060200180831161025e57829003601f168201915b5050505050908060010154905082565b5f80fd5b5f80fd5b5f80fd5b5f80fd5b5f80fd5b5f8083601f8401126102b4576102b3610293565b5b8235905067ffffffffffffffff8111156102d1576102d0610297565b5b6020830191508360018202830111156102ed576102ec61029b565b5b9250929050565b5f819050919050565b610306816102f4565b8114610310575f80fd5b50565b5f81359050610321816102fd565b92915050565b5f805f6040848603121561033e5761033d61028b565b5b5f84013567ffffffffffffffff81111561035b5761035a61028f565b5b6103678682870161029f565b9350935050602061037a86828701610313565b9150509250925092565b5f602082840312156103995761039861028b565b5b5f6103a684828501610313565b91505092915050565b5f81519050919050565b5f82825260208201905092915050565b8281835e5f83830152505050565b5f601f19601f8301169050919050565b5f6103f1826103af565b6103fb81856103b9565b935061040b8185602086016103c9565b610414816103d7565b840191505092915050565b610428816102f4565b82525050565b5f6040820190508181035f83015261044681856103e7565b9050610455602083018461041f565b9392505050565b7f4e487b71000000000000000000000000000000000000000000000000000000005f52604160045260245ffd5b7f4e487b71000000000000000000000000000000000000000000000000000000005f52602260045260245ffd5b5f60028204905060018216806104cd57607f821691505b6020821081036104e0576104df610489565b5b50919050565b5f819050815f5260205f209050919050565b5f6020601f8301049050919050565b5f82821b905092915050565b5f600883026105427fffffffffffffffffffffffffffffffffffffffffffffffffffffffffffffffff82610507565b61054c8683610507565b95508019841693508086168417925050509392505050565b5f819050919050565b5f61058761058261057d846102f4565b610564565b6102f4565b9050919050565b5f819050919050565b6105a08361056d565b6105b46105ac8261058e565b848454610513565b825550505050565b5f90565b6105c86105bc565b6105d3818484610597565b505050565b5b818110156105f6576105eb5f826105c0565b6001810190506105d9565b5050565b601f82111561063b5761060c816104e6565b610615846104f8565b81016020851015610624578190505b610638610630856104f8565b8301826105d8565b50505b505050565b5f82821c905092915050565b5f61065b5f1984600802610640565b1980831691505092915050565b5f610673838361064c565b9150826002028217905092915050565b61068c826103af565b67ffffffffffffffff8111156106a5576106a461045c565b5b6106af82546104b6565b6106ba8282856105fa565b5f60209050601f8311600181146106eb575f84156106d9578287015190505b6106e38582610668565b86555061074a565b601f1984166106f9866104e6565b5f5b82811015610720578489015182556001820191506020850194506020810190506106fb565b8683101561073d5784890151610739601f89168261064c565b8355505b6001600288020188555050505b50505050505056fea2646970667358221220d7924fe27195afb25b6820d63d740d884257085b18af46c6652cdde809b1478a64736f6c634300081a0033",
					"opcodes": "PUSH1 0x80 PUSH1 0x40 MSTORE CALLVALUE DUP1 ISZERO PUSH1 0xE JUMPI PUSH0 DUP1 REVERT JUMPDEST POP PUSH2 0x788 DUP1 PUSH2 0x1C PUSH0 CODECOPY PUSH0 RETURN INVALID PUSH1 0x80 PUSH1 0x40 MSTORE CALLVALUE DUP1 ISZERO PUSH2 0xF JUMPI PUSH0 DUP1 REVERT JUMPDEST POP PUSH1 0x4 CALLDATASIZE LT PUSH2 0x3F JUMPI PUSH0 CALLDATALOAD PUSH1 0xE0 SHR DUP1 PUSH4 0x16131FFE EQ PUSH2 0x43 JUMPI DUP1 PUSH4 0x64D93FC8 EQ PUSH2 0x4D JUMPI DUP1 PUSH4 0xB3689A8F EQ PUSH2 0x69 JUMPI JUMPDEST PUSH0 DUP1 REVERT JUMPDEST PUSH2 0x4B PUSH2 0x9A JUMP JUMPDEST STOP JUMPDEST PUSH2 0x67 PUSH1 0x4 DUP1 CALLDATASIZE SUB DUP2 ADD SWAP1 PUSH2 0x62 SWAP2 SWAP1 PUSH2 0x327 JUMP JUMPDEST PUSH2 0x133 JUMP JUMPDEST STOP JUMPDEST PUSH2 0x83 PUSH1 0x4 DUP1 CALLDATASIZE SUB DUP2 ADD SWAP1 PUSH2 0x7E SWAP2 SWAP1 PUSH2 0x384 JUMP JUMPDEST PUSH2 0x1D7 JUMP JUMPDEST PUSH1 0x40 MLOAD PUSH2 0x91 SWAP3 SWAP2 SWAP1 PUSH2 0x42E JUMP JUMPDEST PUSH1 0x40 MLOAD DUP1 SWAP2 SUB SWAP1 RETURN JUMPDEST PUSH0 PUSH1 0x40 MLOAD DUP1 PUSH1 0x40 ADD PUSH1 0x40 MSTORE DUP1 PUSH1 0x40 MLOAD DUP1 PUSH1 0x40 ADD PUSH1 0x40 MSTORE DUP1 PUSH1 0x7 DUP2 MSTORE PUSH1 0x20 ADD PUSH32 0x5869616F204C6900000000000000000000000000000000000000000000000000 DUP2 MSTORE POP DUP2 MSTORE PUSH1 0x20 ADD PUSH1 0x12 DUP2 MSTORE POP SWAP1 POP PUSH0 DUP2 SWAP1 DUP1 PUSH1 0x1 DUP2 SLOAD ADD DUP1 DUP3 SSTORE DUP1 SWAP2 POP POP PUSH1 0x1 SWAP1 SUB SWAP1 PUSH0 MSTORE PUSH1 0x20 PUSH0 KECCAK256 SWAP1 PUSH1 0x2 MUL ADD PUSH0 SWAP1 SWAP2 SWAP1 SWAP2 SWAP1 SWAP2 POP PUSH0 DUP3 ADD MLOAD DUP2 PUSH0 ADD SWAP1 DUP2 PUSH2 0x123 SWAP2 SWAP1 PUSH2 0x683 JUMP JUMPDEST POP PUSH1 0x20 DUP3 ADD MLOAD DUP2 PUSH1 0x1 ADD SSTORE POP POP POP JUMP JUMPDEST PUSH0 PUSH1 0x40 MLOAD DUP1 PUSH1 0x40 ADD PUSH1 0x40 MSTORE DUP1 DUP6 DUP6 DUP1 DUP1 PUSH1 0x1F ADD PUSH1 0x20 DUP1 SWAP2 DIV MUL PUSH1 0x20 ADD PUSH1 0x40 MLOAD SWAP1 DUP2 ADD PUSH1 0x40 MSTORE DUP1 SWAP4 SWAP3 SWAP2 SWAP1 DUP2 DUP2 MSTORE PUSH1 0x20 ADD DUP4 DUP4 DUP1 DUP3 DUP5 CALLDATACOPY PUSH0 DUP2 DUP5 ADD MSTORE PUSH1 0x1F NOT PUSH1 0x1F DUP3 ADD AND SWAP1 POP DUP1 DUP4 ADD SWAP3 POP POP POP POP POP POP POP DUP2 MSTORE PUSH1 0x20 ADD DUP4 DUP2 MSTORE POP SWAP1 DUP1 PUSH1 0x1 DUP2 SLOAD ADD DUP1 DUP3 SSTORE DUP1 SWAP2 POP POP PUSH1 0x1 SWAP1 SUB SWAP1 PUSH0 MSTORE PUSH1 0x20 PUSH0 KECCAK256 SWAP1 PUSH1 0x2 MUL ADD PUSH0 SWAP1 SWAP2 SWAP1 SWAP2 SWAP1 SWAP2 POP PUSH0 DUP3 ADD MLOAD DUP2 PUSH0 ADD SWAP1 DUP2 PUSH2 0x1C5 SWAP2 SWAP1 PUSH2 0x683 JUMP JUMPDEST POP PUSH1 0x20 DUP3 ADD MLOAD DUP2 PUSH1 0x1 ADD SSTORE POP POP POP POP POP JUMP JUMPDEST PUSH0 DUP2 DUP2 SLOAD DUP2 LT PUSH2 0x1E5 JUMPI PUSH0 DUP1 REVERT JUMPDEST SWAP1 PUSH0 MSTORE PUSH1 0x20 PUSH0 KECCAK256 SWAP1 PUSH1 0x2 MUL ADD PUSH0 SWAP2 POP SWAP1 POP DUP1 PUSH0 ADD DUP1 SLOAD PUSH2 0x204 SWAP1 PUSH2 0x4B6 JUMP JUMPDEST DUP1 PUSH1 0x1F ADD PUSH1 0x20 DUP1 SWAP2 DIV MUL PUSH1 0x20 ADD PUSH1 0x40 MLOAD SWAP1 DUP2 ADD PUSH1 0x40 MSTORE DUP1 SWAP3 SWAP2 SWAP1 DUP2 DUP2 MSTORE PUSH1 0x20 ADD DUP3 DUP1 SLOAD PUSH2 0x230 SWAP1 PUSH2 0x4B6 JUMP JUMPDEST DUP1 ISZERO PUSH2 0x27B JUMPI DUP1 PUSH1 0x1F LT PUSH2 0x252 JUMPI PUSH2 0x100 DUP1 DUP4 SLOAD DIV MUL DUP4 MSTORE SWAP2 PUSH1 0x20 ADD SWAP2 PUSH2 0x27B JUMP JUMPDEST DUP3 ADD SWAP2 SWAP1 PUSH0 MSTORE PUSH1 0x20 PUSH0 KECCAK256 SWAP1 JUMPDEST DUP2 SLOAD DUP2 MSTORE SWAP1 PUSH1 0x1 ADD SWAP1 PUSH1 0x20 ADD DUP1 DUP4 GT PUSH2 0x25E JUMPI DUP3 SWAP1 SUB PUSH1 0x1F AND DUP3 ADD SWAP2 JUMPDEST POP POP POP POP POP SWAP1 DUP1 PUSH1 0x1 ADD SLOAD SWAP1 POP DUP3 JUMP JUMPDEST PUSH0 DUP1 REVERT JUMPDEST PUSH0 DUP1 REVERT JUMPDEST PUSH0 DUP1 REVERT JUMPDEST PUSH0 DUP1 REVERT JUMPDEST PUSH0 DUP1 REVERT JUMPDEST PUSH0 DUP1 DUP4 PUSH1 0x1F DUP5 ADD SLT PUSH2 0x2B4 JUMPI PUSH2 0x2B3 PUSH2 0x293 JUMP JUMPDEST JUMPDEST DUP3 CALLDATALOAD SWAP1 POP PUSH8 0xFFFFFFFFFFFFFFFF DUP2 GT ISZERO PUSH2 0x2D1 JUMPI PUSH2 0x2D0 PUSH2 0x297 JUMP JUMPDEST JUMPDEST PUSH1 0x20 DUP4 ADD SWAP2 POP DUP4 PUSH1 0x1 DUP3 MUL DUP4 ADD GT ISZERO PUSH2 0x2ED JUMPI PUSH2 0x2EC PUSH2 0x29B JUMP JUMPDEST JUMPDEST SWAP3 POP SWAP3 SWAP1 POP JUMP JUMPDEST PUSH0 DUP2 SWAP1 POP SWAP2 SWAP1 POP JUMP JUMPDEST PUSH2 0x306 DUP2 PUSH2 0x2F4 JUMP JUMPDEST DUP2 EQ PUSH2 0x310 JUMPI PUSH0 DUP1 REVERT JUMPDEST POP JUMP JUMPDEST PUSH0 DUP2 CALLDATALOAD SWAP1 POP PUSH2 0x321 DUP2 PUSH2 0x2FD JUMP JUMPDEST SWAP3 SWAP2 POP POP JUMP JUMPDEST PUSH0 DUP1 PUSH0 PUSH1 0x40 DUP5 DUP7 SUB SLT ISZERO PUSH2 0x33E JUMPI PUSH2 0x33D PUSH2 0x28B JUMP JUMPDEST JUMPDEST PUSH0 DUP5 ADD CALLDATALOAD PUSH8 0xFFFFFFFFFFFFFFFF DUP2 GT ISZERO PUSH2 0x35B JUMPI PUSH2 0x35A PUSH2 0x28F JUMP JUMPDEST JUMPDEST PUSH2 0x367 DUP7 DUP3 DUP8 ADD PUSH2 0x29F JUMP JUMPDEST SWAP4 POP SWAP4 POP POP PUSH1 0x20 PUSH2 0x37A DUP7 DUP3 DUP8 ADD PUSH2 0x313 JUMP JUMPDEST SWAP2 POP POP SWAP3 POP SWAP3 POP SWAP3 JUMP JUMPDEST PUSH0 PUSH1 0x20 DUP3 DUP5 SUB SLT ISZERO PUSH2 0x399 JUMPI PUSH2 0x398 PUSH2 0x28B JUMP JUMPDEST JUMPDEST PUSH0 PUSH2 0x3A6 DUP5 DUP3 DUP6 ADD PUSH2 0x313 JUMP JUMPDEST SWAP2 POP POP SWAP3 SWAP2 POP POP JUMP JUMPDEST PUSH0 DUP2 MLOAD SWAP1 POP SWAP2 SWAP1 POP JUMP JUMPDEST PUSH0 DUP3 DUP3 MSTORE PUSH1 0x20 DUP3 ADD SWAP1 POP SWAP3 SWAP2 POP POP JUMP JUMPDEST DUP3 DUP2 DUP4 MCOPY PUSH0 DUP4 DUP4 ADD MSTORE POP POP POP JUMP JUMPDEST PUSH0 PUSH1 0x1F NOT PUSH1 0x1F DUP4 ADD AND SWAP1 POP SWAP2 SWAP1 POP JUMP JUMPDEST PUSH0 PUSH2 0x3F1 DUP3 PUSH2 0x3AF JUMP JUMPDEST PUSH2 0x3FB DUP2 DUP6 PUSH2 0x3B9 JUMP JUMPDEST SWAP4 POP PUSH2 0x40B DUP2 DUP6 PUSH1 0x20 DUP7 ADD PUSH2 0x3C9 JUMP JUMPDEST PUSH2 0x414 DUP2 PUSH2 0x3D7 JUMP JUMPDEST DUP5 ADD SWAP2 POP POP SWAP3 SWAP2 POP POP JUMP JUMPDEST PUSH2 0x428 DUP2 PUSH2 0x2F4 JUMP JUMPDEST DUP3 MSTORE POP POP JUMP JUMPDEST PUSH0 PUSH1 0x40 DUP3 ADD SWAP1 POP DUP2 DUP2 SUB PUSH0 DUP4 ADD MSTORE PUSH2 0x446 DUP2 DUP6 PUSH2 0x3E7 JUMP JUMPDEST SWAP1 POP PUSH2 0x455 PUSH1 0x20 DUP4 ADD DUP5 PUSH2 0x41F JUMP JUMPDEST SWAP4 SWAP3 POP POP POP JUMP JUMPDEST PUSH32 0x4E487B7100000000000000000000000000000000000000000000000000000000 PUSH0 MSTORE PUSH1 0x41 PUSH1 0x4 MSTORE PUSH1 0x24 PUSH0 REVERT JUMPDEST PUSH32 0x4E487B7100000000000000000000000000000000000000000000000000000000 PUSH0 MSTORE PUSH1 0x22 PUSH1 0x4 MSTORE PUSH1 0x24 PUSH0 REVERT JUMPDEST PUSH0 PUSH1 0x2 DUP3 DIV SWAP1 POP PUSH1 0x1 DUP3 AND DUP1 PUSH2 0x4CD JUMPI PUSH1 0x7F DUP3 AND SWAP2 POP JUMPDEST PUSH1 0x20 DUP3 LT DUP2 SUB PUSH2 0x4E0 JUMPI PUSH2 0x4DF PUSH2 0x489 JUMP JUMPDEST JUMPDEST POP SWAP2 SWAP1 POP JUMP JUMPDEST PUSH0 DUP2 SWAP1 POP DUP2 PUSH0 MSTORE PUSH1 0x20 PUSH0 KECCAK256 SWAP1 POP SWAP2 SWAP1 POP JUMP JUMPDEST PUSH0 PUSH1 0x20 PUSH1 0x1F DUP4 ADD DIV SWAP1 POP SWAP2 SWAP1 POP JUMP JUMPDEST PUSH0 DUP3 DUP3 SHL SWAP1 POP SWAP3 SWAP2 POP POP JUMP JUMPDEST PUSH0 PUSH1 0x8 DUP4 MUL PUSH2 0x542 PUSH32 0xFFFFFFFFFFFFFFFFFFFFFFFFFFFFFFFFFFFFFFFFFFFFFFFFFFFFFFFFFFFFFFFF DUP3 PUSH2 0x507 JUMP JUMPDEST PUSH2 0x54C DUP7 DUP4 PUSH2 0x507 JUMP JUMPDEST SWAP6 POP DUP1 NOT DUP5 AND SWAP4 POP DUP1 DUP7 AND DUP5 OR SWAP3 POP POP POP SWAP4 SWAP3 POP POP POP JUMP JUMPDEST PUSH0 DUP2 SWAP1 POP SWAP2 SWAP1 POP JUMP JUMPDEST PUSH0 PUSH2 0x587 PUSH2 0x582 PUSH2 0x57D DUP5 PUSH2 0x2F4 JUMP JUMPDEST PUSH2 0x564 JUMP JUMPDEST PUSH2 0x2F4 JUMP JUMPDEST SWAP1 POP SWAP2 SWAP1 POP JUMP JUMPDEST PUSH0 DUP2 SWAP1 POP SWAP2 SWAP1 POP JUMP JUMPDEST PUSH2 0x5A0 DUP4 PUSH2 0x56D JUMP JUMPDEST PUSH2 0x5B4 PUSH2 0x5AC DUP3 PUSH2 0x58E JUMP JUMPDEST DUP5 DUP5 SLOAD PUSH2 0x513 JUMP JUMPDEST DUP3 SSTORE POP POP POP POP JUMP JUMPDEST PUSH0 SWAP1 JUMP JUMPDEST PUSH2 0x5C8 PUSH2 0x5BC JUMP JUMPDEST PUSH2 0x5D3 DUP2 DUP5 DUP5 PUSH2 0x597 JUMP JUMPDEST POP POP POP JUMP JUMPDEST JUMPDEST DUP2 DUP2 LT ISZERO PUSH2 0x5F6 JUMPI PUSH2 0x5EB PUSH0 DUP3 PUSH2 0x5C0 JUMP JUMPDEST PUSH1 0x1 DUP2 ADD SWAP1 POP PUSH2 0x5D9 JUMP JUMPDEST POP POP JUMP JUMPDEST PUSH1 0x1F DUP3 GT ISZERO PUSH2 0x63B JUMPI PUSH2 0x60C DUP2 PUSH2 0x4E6 JUMP JUMPDEST PUSH2 0x615 DUP5 PUSH2 0x4F8 JUMP JUMPDEST DUP2 ADD PUSH1 0x20 DUP6 LT ISZERO PUSH2 0x624 JUMPI DUP2 SWAP1 POP JUMPDEST PUSH2 0x638 PUSH2 0x630 DUP6 PUSH2 0x4F8 JUMP JUMPDEST DUP4 ADD DUP3 PUSH2 0x5D8 JUMP JUMPDEST POP POP JUMPDEST POP POP POP JUMP JUMPDEST PUSH0 DUP3 DUP3 SHR SWAP1 POP SWAP3 SWAP2 POP POP JUMP JUMPDEST PUSH0 PUSH2 0x65B PUSH0 NOT DUP5 PUSH1 0x8 MUL PUSH2 0x640 JUMP JUMPDEST NOT DUP1 DUP4 AND SWAP2 POP POP SWAP3 SWAP2 POP POP JUMP JUMPDEST PUSH0 PUSH2 0x673 DUP4 DUP4 PUSH2 0x64C JUMP JUMPDEST SWAP2 POP DUP3 PUSH1 0x2 MUL DUP3 OR SWAP1 POP SWAP3 SWAP2 POP POP JUMP JUMPDEST PUSH2 0x68C DUP3 PUSH2 0x3AF JUMP JUMPDEST PUSH8 0xFFFFFFFFFFFFFFFF DUP2 GT ISZERO PUSH2 0x6A5 JUMPI PUSH2 0x6A4 PUSH2 0x45C JUMP JUMPDEST JUMPDEST PUSH2 0x6AF DUP3 SLOAD PUSH2 0x4B6 JUMP JUMPDEST PUSH2 0x6BA DUP3 DUP3 DUP6 PUSH2 0x5FA JUMP JUMPDEST PUSH0 PUSH1 0x20 SWAP1 POP PUSH1 0x1F DUP4 GT PUSH1 0x1 DUP2 EQ PUSH2 0x6EB JUMPI PUSH0 DUP5 ISZERO PUSH2 0x6D9 JUMPI DUP3 DUP8 ADD MLOAD SWAP1 POP JUMPDEST PUSH2 0x6E3 DUP6 DUP3 PUSH2 0x668 JUMP JUMPDEST DUP7 SSTORE POP PUSH2 0x74A JUMP JUMPDEST PUSH1 0x1F NOT DUP5 AND PUSH2 0x6F9 DUP7 PUSH2 0x4E6 JUMP JUMPDEST PUSH0 JUMPDEST DUP3 DUP2 LT ISZERO PUSH2 0x720 JUMPI DUP5 DUP10 ADD MLOAD DUP3 SSTORE PUSH1 0x1 DUP3 ADD SWAP2 POP PUSH1 0x20 DUP6 ADD SWAP5 POP PUSH1 0x20 DUP2 ADD SWAP1 POP PUSH2 0x6FB JUMP JUMPDEST DUP7 DUP4 LT ISZERO PUSH2 0x73D JUMPI DUP5 DUP10 ADD MLOAD PUSH2 0x739 PUSH1 0x1F DUP10 AND DUP3 PUSH2 0x64C JUMP JUMPDEST DUP4 SSTORE POP JUMPDEST PUSH1 0x1 PUSH1 0x2 DUP9 MUL ADD DUP9 SSTORE POP POP POP JUMPDEST POP POP POP POP POP POP JUMP INVALID LOG2 PUSH5 0x6970667358 0x22 SLT KECCAK256 0xD7 SWAP3 0x4F 0xE2 PUSH18 0x95AFB25B6820D63D740D884257085B18AF46 0xC6 PUSH6 0x2CDDE809B147 DUP11 PUSH5 0x736F6C6343 STOP ADDMOD BYTE STOP CALLER "
				},
				"gasEstimates": {
					"creation": {
						"codeDepositCost": "385600",
						"executionCost": "422",
						"totalCost": "386022"
					},
					"external": {
						"create1(string,uint256)": "infinite",
						"createXiaoLi()": "infinite",
						"personArr(uint256)": "infinite"
					}
				},
				"methodIdentifiers": {
					"create1(string,uint256)": "64d93fc8",
					"createXiaoLi()": "16131ffe",
					"personArr(uint256)": "b3689a8f"
				}
			},
			"storageLayout": {
				"storage": [
					{
						"astId": 10,
						"contract": "contracts/Structs.sol:Structs",
						"label": "personArr",
						"offset": 0,
						"slot": "0",
						"type": "t_array(t_struct(Person)6_storage)dyn_storage"
					}
				],
				"types": {
					"t_array(t_struct(Person)6_storage)dyn_storage": {
						"base": "t_struct(Person)6_storage",
						"encoding": "dynamic_array",
						"label": "struct Structs.Person[]",
						"numberOfBytes": "32"
					},
					"t_string_storage": {
						"encoding": "bytes",
						"label": "string",
						"numberOfBytes": "32"
					},
					"t_struct(Person)6_storage": {
						"encoding": "inplace",
						"label": "struct Structs.Person",
						"members": [
							{
								"astId": 3,
								"contract": "contracts/Structs.sol:Structs",
								"label": "name",
								"offset": 0,
								"slot": "0",
								"type": "t_string_storage"
							},
							{
								"astId": 5,
								"contract": "contracts/Structs.sol:Structs",
								"label": "age",
								"offset": 0,
								"slot": "1",
								"type": "t_uint256"
							}
						],
						"numberOfBytes": "64"
					},
					"t_uint256": {
						"encoding": "inplace",
						"label": "uint256",
						"numberOfBytes": "32"
					}
				}
			},
			"userdoc": {
				"kind": "user",
				"methods": {},
				"version": 1
			}
		}
	}
}