{
	"contracts/Primitives.sol": {
		"Primitives": {
			"abi": [
				{
					"inputs": [
						{
							"internalType": "uint256",
							"name": "_myUnit",
							"type": "uint256"
						}
					],
					"stateMutability": "nonpayable",
					"type": "constructor"
				},
				{
					"inputs": [],
					"name": "MY_ADDRESS",
					"outputs": [
						{
							"internalType": "address",
							"name": "",
							"type": "address"
						}
					],
					"stateMutability": "view",
					"type": "function"
				},
				{
					"inputs": [],
					"name": "MY_UINT",
					"outputs": [
						{
							"internalType": "uint256",
							"name": "",
							"type": "uint256"
						}
					],
					"stateMutability": "view",
					"type": "function"
				},
				{
					"inputs": [],
					"name": "addr",
					"outputs": [
						{
							"internalType": "address",
							"name": "",
							"type": "address"
						}
					],
					"stateMutability": "view",
					"type": "function"
				},
				{
					"inputs": [],
					"name": "boo",
					"outputs": [
						{
							"internalType": "bool",
							"name": "",
							"type": "bool"
						}
					],
					"stateMutability": "view",
					"type": "function"
				},
				{
					"inputs": [],
					"name": "get",
					"outputs": [
						{
							"internalType": "uint256",
							"name": "",
							"type": "uint256"
						}
					],
					"stateMutability": "view",
					"type": "function"
				},
				{
					"inputs": [],
					"name": "myAddress2",
					"outputs": [
						{
							"internalType": "address",
							"name": "",
							"type": "address"
						}
					],
					"stateMutability": "view",
					"type": "function"
				},
				{
					"inputs": [],
					"name": "myUint2",
					"outputs": [
						{
							"internalType": "uint256",
							"name": "",
							"type": "uint256"
						}
					],
					"stateMutability": "view",
					"type": "function"
				},
				{
					"inputs": [],
					"name": "num",
					"outputs": [
						{
							"internalType": "uint256",
							"name": "",
							"type": "uint256"
						}
					],
					"stateMutability": "view",
					"type": "function"
				},
				{
					"inputs": [
						{
							"internalType": "uint256",
							"name": "_num",
							"type": "uint256"
						}
					],
					"name": "set",
					"outputs": [],
					"stateMutability": "nonpayable",
					"type": "function"
				},
				{
					"inputs": [],
					"name": "u1",
					"outputs": [
						{
							"internalType": "uint16",
							"name": "",
							"type": "uint16"
						}
					],
					"stateMutability": "view",
					"type": "function"
				},
				{
					"inputs": [],
					"name": "u2",
					"outputs": [
						{
							"internalType": "uint256",
							"name": "",
							"type": "uint256"
						}
					],
					"stateMutability": "view",
					"type": "function"
				},
				{
					"inputs": [],
					"name": "u8",
					"outputs": [
						{
							"internalType": "uint8",
							"name": "",
							"type": "uint8"
						}
					],
					"stateMutability": "view",
					"type": "function"
				}
			],
			"devdoc": {
				"kind": "dev",
				"methods": {},
				"version": 1
			},
			"evm": {
				"assembly": "    /* \"contracts/Primitives.sol\":58:896  contract Primitives {... */\n  mstore(0x40, 0xc0)\n    /* \"contracts/Primitives.sol\":102:106  true */\n  0x01\n    /* \"contracts/Primitives.sol\":84:106  bool public boo = true */\n  0x00\n  dup1\n  0x0100\n  exp\n  dup2\n  sload\n  dup2\n  0xff\n  mul\n  not\n  and\n  swap1\n  dup4\n  iszero\n  iszero\n  mul\n  or\n  swap1\n  sstore\n  pop\n    /* \"contracts/Primitives.sol\":131:132  1 */\n  0x01\n    /* \"contracts/Primitives.sol\":113:132  uint8 public u8 = 1 */\n  0x00\n  exp(0x0100, 0x01)\n  dup2\n  sload\n  dup2\n  0xff\n  mul\n  not\n  and\n  swap1\n  dup4\n  0xff\n  and\n  mul\n  or\n  swap1\n  sstore\n  pop\n    /* \"contracts/Primitives.sol\":157:162  12345 */\n  0x3039\n    /* \"contracts/Primitives.sol\":138:162  uint16 public u1 = 12345 */\n  0x00\n  exp(0x0100, 0x02)\n  dup2\n  sload\n  dup2\n  0xffff\n  mul\n  not\n  and\n  swap1\n  dup4\n  0xffff\n  and\n  mul\n  or\n  swap1\n  sstore\n  pop\n    /* \"contracts/Primitives.sol\":188:196  12345678 */\n  0xbc614e\n    /* \"contracts/Primitives.sol\":168:196  uint256 public u2 = 12345678 */\n  0x01\n  sstore\n    /* \"contracts/Primitives.sol\":214:218  0xb5 */\n  0xb5\n    /* \"contracts/Primitives.sol\":203:218  bytes1 a = 0xb5 */\n  0xf8\n  shl\n  0x02\n  exp(0x0100, 0x00)\n  dup2\n  sload\n  dup2\n  0xff\n  mul\n  not\n  and\n  swap1\n  dup4\n  0xf8\n  shr\n  mul\n  or\n  swap1\n  sstore\n  pop\n    /* \"contracts/Primitives.sol\":235:241  0x1234 */\n  0x1234\n    /* \"contracts/Primitives.sol\":224:241  bytes2 b = 0x1234 */\n  0xf0\n  shl\n  0x02\n  exp(0x0100, 0x01)\n  dup2\n  sload\n  dup2\n  0xffff\n  mul\n  not\n  and\n  swap1\n  dup4\n  0xf0\n  shr\n  mul\n  or\n  swap1\n  sstore\n  pop\n    /* \"contracts/Primitives.sol\":270:312  0x1234567890123456789012345678901234567890 */\n  0x1234567890123456789012345678901234567890\n    /* \"contracts/Primitives.sol\":248:312  address public addr = 0x1234567890123456789012345678901234567890 */\n  0x02\n  exp(0x0100, 0x03)\n  dup2\n  sload\n  dup2\n  0xffffffffffffffffffffffffffffffffffffffff\n  mul\n  not\n  and\n  swap1\n  dup4\n  0xffffffffffffffffffffffffffffffffffffffff\n  and\n  mul\n  or\n  swap1\n  sstore\n  pop\n    /* \"contracts/Primitives.sol\":629:725  constructor(uint256 _myUnit) {... */\n  callvalue\n  dup1\n  iszero\n  tag_1\n  jumpi\n  0x00\n  dup1\n  revert\ntag_1:\n  pop\n  mload(0x40)\n  sub(codesize, bytecodeSize)\n  dup1\n  bytecodeSize\n  dup4\n  codecopy\n  dup2\n  dup2\n  add\n  0x40\n  mstore\n  dup2\n  add\n  swap1\n  tag_2\n  swap2\n  swap1\n  tag_3\n  jump\t// in\ntag_2:\n    /* \"contracts/Primitives.sol\":681:691  msg.sender */\n  caller\n    /* \"contracts/Primitives.sol\":668:691  myAddress2 = msg.sender */\n  0xffffffffffffffffffffffffffffffffffffffff\n  and\n  0x80\n  dup2\n  0xffffffffffffffffffffffffffffffffffffffff\n  and\n  dup2\n  mstore\n  pop\n  pop\n    /* \"contracts/Primitives.sol\":711:718  _myUnit */\n  dup1\n    /* \"contracts/Primitives.sol\":701:718  myUint2 = _myUnit */\n  0xa0\n  dup2\n  dup2\n  mstore\n  pop\n  pop\n    /* \"contracts/Primitives.sol\":629:725  constructor(uint256 _myUnit) {... */\n  pop\n    /* \"contracts/Primitives.sol\":58:896  contract Primitives {... */\n  jump(tag_6)\n    /* \"#utility.yul\":88:205   */\ntag_8:\n    /* \"#utility.yul\":197:198   */\n  0x00\n    /* \"#utility.yul\":194:195   */\n  dup1\n    /* \"#utility.yul\":187:199   */\n  revert\n    /* \"#utility.yul\":334:411   */\ntag_10:\n    /* \"#utility.yul\":371:378   */\n  0x00\n    /* \"#utility.yul\":400:405   */\n  dup2\n    /* \"#utility.yul\":389:405   */\n  swap1\n  pop\n    /* \"#utility.yul\":334:411   */\n  swap2\n  swap1\n  pop\n  jump\t// out\n    /* \"#utility.yul\":417:539   */\ntag_11:\n    /* \"#utility.yul\":490:514   */\n  tag_19\n    /* \"#utility.yul\":508:513   */\n  dup2\n    /* \"#utility.yul\":490:514   */\n  tag_10\n  jump\t// in\ntag_19:\n    /* \"#utility.yul\":483:488   */\n  dup2\n    /* \"#utility.yul\":480:515   */\n  eq\n    /* \"#utility.yul\":470:533   */\n  tag_20\n  jumpi\n    /* \"#utility.yul\":529:530   */\n  0x00\n    /* \"#utility.yul\":526:527   */\n  dup1\n    /* \"#utility.yul\":519:531   */\n  revert\n    /* \"#utility.yul\":470:533   */\ntag_20:\n    /* \"#utility.yul\":417:539   */\n  pop\n  jump\t// out\n    /* \"#utility.yul\":545:688   */\ntag_12:\n    /* \"#utility.yul\":602:607   */\n  0x00\n    /* \"#utility.yul\":633:639   */\n  dup2\n    /* \"#utility.yul\":627:640   */\n  mload\n    /* \"#utility.yul\":618:640   */\n  swap1\n  pop\n    /* \"#utility.yul\":649:682   */\n  tag_22\n    /* \"#utility.yul\":676:681   */\n  dup2\n    /* \"#utility.yul\":649:682   */\n  tag_11\n  jump\t// in\ntag_22:\n    /* \"#utility.yul\":545:688   */\n  swap3\n  swap2\n  pop\n  pop\n  jump\t// out\n    /* \"#utility.yul\":694:1045   */\ntag_3:\n    /* \"#utility.yul\":764:770   */\n  0x00\n    /* \"#utility.yul\":813:815   */\n  0x20\n    /* \"#utility.yul\":801:810   */\n  dup3\n    /* \"#utility.yul\":792:799   */\n  dup5\n    /* \"#utility.yul\":788:811   */\n  sub\n    /* \"#utility.yul\":784:816   */\n  slt\n    /* \"#utility.yul\":781:900   */\n  iszero\n  tag_24\n  jumpi\n    /* \"#utility.yul\":819:898   */\n  tag_25\n  tag_8\n  jump\t// in\ntag_25:\n    /* \"#utility.yul\":781:900   */\ntag_24:\n    /* \"#utility.yul\":939:940   */\n  0x00\n    /* \"#utility.yul\":964:1028   */\n  tag_26\n    /* \"#utility.yul\":1020:1027   */\n  dup5\n    /* \"#utility.yul\":1011:1017   */\n  dup3\n    /* \"#utility.yul\":1000:1009   */\n  dup6\n    /* \"#utility.yul\":996:1018   */\n  add\n    /* \"#utility.yul\":964:1028   */\n  tag_12\n  jump\t// in\ntag_26:\n    /* \"#utility.yul\":954:1028   */\n  swap2\n  pop\n    /* \"#utility.yul\":910:1038   */\n  pop\n    /* \"#utility.yul\":694:1045   */\n  swap3\n  swap2\n  pop\n  pop\n  jump\t// out\n    /* \"contracts/Primitives.sol\":58:896  contract Primitives {... */\ntag_6:\n  mload(0x80)\n  mload(0xa0)\n  codecopy(0x00, dataOffset(sub_0), dataSize(sub_0))\n  0x00\n  assignImmutable(\"0x8b953cbb84328003779eb1ef176ef07f7dd0ae3d4a8e408de53d15a36466c86e\")\n  0x00\n  assignImmutable(\"0xbbf5a24880b10a5f9f601c4058e4771ddea17e7d765ceb3c903814e1c0d621e0\")\n  return(0x00, dataSize(sub_0))\nstop\n\nsub_0: assembly {\n        /* \"contracts/Primitives.sol\":58:896  contract Primitives {... */\n      mstore(0x40, 0x80)\n      callvalue\n      dup1\n      iszero\n      tag_1\n      jumpi\n      0x00\n      dup1\n      revert\n    tag_1:\n      pop\n      jumpi(tag_2, lt(calldatasize, 0x04))\n      shr(0xe0, calldataload(0x00))\n      dup1\n      0x60fe47b1\n      gt\n      tag_15\n      jumpi\n      dup1\n      0x60fe47b1\n      eq\n      tag_9\n      jumpi\n      dup1\n      0x6d4ce63c\n      eq\n      tag_10\n      jumpi\n      dup1\n      0x75da9f76\n      eq\n      tag_11\n      jumpi\n      dup1\n      0x767800de\n      eq\n      tag_12\n      jumpi\n      dup1\n      0xaa9cc775\n      eq\n      tag_13\n      jumpi\n      dup1\n      0xab3a58a3\n      eq\n      tag_14\n      jumpi\n      jump(tag_2)\n    tag_15:\n      dup1\n      0x12eeaea1\n      eq\n      tag_3\n      jumpi\n      dup1\n      0x1aa35610\n      eq\n      tag_4\n      jumpi\n      dup1\n      0x1f6649e3\n      eq\n      tag_5\n      jumpi\n      dup1\n      0x3a756cec\n      eq\n      tag_6\n      jumpi\n      dup1\n      0x4b3df200\n      eq\n      tag_7\n      jumpi\n      dup1\n      0x4e70b1dc\n      eq\n      tag_8\n      jumpi\n    tag_2:\n      0x00\n      dup1\n      revert\n        /* \"contracts/Primitives.sol\":492:527  address public immutable myAddress2 */\n    tag_3:\n      tag_16\n      tag_17\n      jump\t// in\n    tag_16:\n      mload(0x40)\n      tag_18\n      swap2\n      swap1\n      tag_19\n      jump\t// in\n    tag_18:\n      mload(0x40)\n      dup1\n      swap2\n      sub\n      swap1\n      return\n        /* \"contracts/Primitives.sol\":138:162  uint16 public u1 = 12345 */\n    tag_4:\n      tag_20\n      tag_21\n      jump\t// in\n    tag_20:\n      mload(0x40)\n      tag_22\n      swap2\n      swap1\n      tag_23\n      jump\t// in\n    tag_22:\n      mload(0x40)\n      dup1\n      swap2\n      sub\n      swap1\n      return\n        /* \"contracts/Primitives.sol\":448:485  uint256 public constant MY_UINT = 123 */\n    tag_5:\n      tag_24\n      tag_25\n      jump\t// in\n    tag_24:\n      mload(0x40)\n      tag_26\n      swap2\n      swap1\n      tag_27\n      jump\t// in\n    tag_26:\n      mload(0x40)\n      dup1\n      swap2\n      sub\n      swap1\n      return\n        /* \"contracts/Primitives.sol\":363:442  address public constant MY_ADDRESS = 0x0000000000000000000000000000000000000000 */\n    tag_6:\n      tag_28\n      tag_29\n      jump\t// in\n    tag_28:\n      mload(0x40)\n      tag_30\n      swap2\n      swap1\n      tag_19\n      jump\t// in\n    tag_30:\n      mload(0x40)\n      dup1\n      swap2\n      sub\n      swap1\n      return\n        /* \"contracts/Primitives.sol\":84:106  bool public boo = true */\n    tag_7:\n      tag_31\n      tag_32\n      jump\t// in\n    tag_31:\n      mload(0x40)\n      tag_33\n      swap2\n      swap1\n      tag_34\n      jump\t// in\n    tag_33:\n      mload(0x40)\n      dup1\n      swap2\n      sub\n      swap1\n      return\n        /* \"contracts/Primitives.sol\":731:749  uint256 public num */\n    tag_8:\n      tag_35\n      tag_36\n      jump\t// in\n    tag_35:\n      mload(0x40)\n      tag_37\n      swap2\n      swap1\n      tag_27\n      jump\t// in\n    tag_37:\n      mload(0x40)\n      dup1\n      swap2\n      sub\n      swap1\n      return\n        /* \"contracts/Primitives.sol\":755:816  function set(uint256 _num) public {... */\n    tag_9:\n      tag_38\n      0x04\n      dup1\n      calldatasize\n      sub\n      dup2\n      add\n      swap1\n      tag_39\n      swap2\n      swap1\n      tag_40\n      jump\t// in\n    tag_39:\n      tag_41\n      jump\t// in\n    tag_38:\n      stop\n        /* \"contracts/Primitives.sol\":822:894  function get() public view returns (uint256) {... */\n    tag_10:\n      tag_42\n      tag_43\n      jump\t// in\n    tag_42:\n      mload(0x40)\n      tag_44\n      swap2\n      swap1\n      tag_27\n      jump\t// in\n    tag_44:\n      mload(0x40)\n      dup1\n      swap2\n      sub\n      swap1\n      return\n        /* \"contracts/Primitives.sol\":168:196  uint256 public u2 = 12345678 */\n    tag_11:\n      tag_45\n      tag_46\n      jump\t// in\n    tag_45:\n      mload(0x40)\n      tag_47\n      swap2\n      swap1\n      tag_27\n      jump\t// in\n    tag_47:\n      mload(0x40)\n      dup1\n      swap2\n      sub\n      swap1\n      return\n        /* \"contracts/Primitives.sol\":248:312  address public addr = 0x1234567890123456789012345678901234567890 */\n    tag_12:\n      tag_48\n      tag_49\n      jump\t// in\n    tag_48:\n      mload(0x40)\n      tag_50\n      swap2\n      swap1\n      tag_19\n      jump\t// in\n    tag_50:\n      mload(0x40)\n      dup1\n      swap2\n      sub\n      swap1\n      return\n        /* \"contracts/Primitives.sol\":533:565  uint256 public immutable myUint2 */\n    tag_13:\n      tag_51\n      tag_52\n      jump\t// in\n    tag_51:\n      mload(0x40)\n      tag_53\n      swap2\n      swap1\n      tag_27\n      jump\t// in\n    tag_53:\n      mload(0x40)\n      dup1\n      swap2\n      sub\n      swap1\n      return\n        /* \"contracts/Primitives.sol\":113:132  uint8 public u8 = 1 */\n    tag_14:\n      tag_54\n      tag_55\n      jump\t// in\n    tag_54:\n      mload(0x40)\n      tag_56\n      swap2\n      swap1\n      tag_57\n      jump\t// in\n    tag_56:\n      mload(0x40)\n      dup1\n      swap2\n      sub\n      swap1\n      return\n        /* \"contracts/Primitives.sol\":492:527  address public immutable myAddress2 */\n    tag_17:\n      immutable(\"0xbbf5a24880b10a5f9f601c4058e4771ddea17e7d765ceb3c903814e1c0d621e0\")\n      dup2\n      jump\t// out\n        /* \"contracts/Primitives.sol\":138:162  uint16 public u1 = 12345 */\n    tag_21:\n      0x00\n      0x02\n      swap1\n      sload\n      swap1\n      0x0100\n      exp\n      swap1\n      div\n      0xffff\n      and\n      dup2\n      jump\t// out\n        /* \"contracts/Primitives.sol\":448:485  uint256 public constant MY_UINT = 123 */\n    tag_25:\n        /* \"contracts/Primitives.sol\":482:485  123 */\n      0x7b\n        /* \"contracts/Primitives.sol\":448:485  uint256 public constant MY_UINT = 123 */\n      dup2\n      jump\t// out\n        /* \"contracts/Primitives.sol\":363:442  address public constant MY_ADDRESS = 0x0000000000000000000000000000000000000000 */\n    tag_29:\n        /* \"contracts/Primitives.sol\":400:442  0x0000000000000000000000000000000000000000 */\n      0x00\n        /* \"contracts/Primitives.sol\":363:442  address public constant MY_ADDRESS = 0x0000000000000000000000000000000000000000 */\n      dup2\n      jump\t// out\n        /* \"contracts/Primitives.sol\":84:106  bool public boo = true */\n    tag_32:\n      0x00\n      dup1\n      sload\n      swap1\n      0x0100\n      exp\n      swap1\n      div\n      0xff\n      and\n      dup2\n      jump\t// out\n        /* \"contracts/Primitives.sol\":731:749  uint256 public num */\n    tag_36:\n      sload(0x03)\n      dup2\n      jump\t// out\n        /* \"contracts/Primitives.sol\":755:816  function set(uint256 _num) public {... */\n    tag_41:\n        /* \"contracts/Primitives.sol\":805:809  _num */\n      dup1\n        /* \"contracts/Primitives.sol\":799:802  num */\n      0x03\n        /* \"contracts/Primitives.sol\":799:809  num = _num */\n      dup2\n      swap1\n      sstore\n      pop\n        /* \"contracts/Primitives.sol\":755:816  function set(uint256 _num) public {... */\n      pop\n      jump\t// out\n        /* \"contracts/Primitives.sol\":822:894  function get() public view returns (uint256) {... */\n    tag_43:\n        /* \"contracts/Primitives.sol\":858:865  uint256 */\n      0x00\n        /* \"contracts/Primitives.sol\":884:887  num */\n      sload(0x03)\n        /* \"contracts/Primitives.sol\":877:887  return num */\n      swap1\n      pop\n        /* \"contracts/Primitives.sol\":822:894  function get() public view returns (uint256) {... */\n      swap1\n      jump\t// out\n        /* \"contracts/Primitives.sol\":168:196  uint256 public u2 = 12345678 */\n    tag_46:\n      sload(0x01)\n      dup2\n      jump\t// out\n        /* \"contracts/Primitives.sol\":248:312  address public addr = 0x1234567890123456789012345678901234567890 */\n    tag_49:\n      0x02\n      0x03\n      swap1\n      sload\n      swap1\n      0x0100\n      exp\n      swap1\n      div\n      0xffffffffffffffffffffffffffffffffffffffff\n      and\n      dup2\n      jump\t// out\n        /* \"contracts/Primitives.sol\":533:565  uint256 public immutable myUint2 */\n    tag_52:\n      immutable(\"0x8b953cbb84328003779eb1ef176ef07f7dd0ae3d4a8e408de53d15a36466c86e\")\n      dup2\n      jump\t// out\n        /* \"contracts/Primitives.sol\":113:132  uint8 public u8 = 1 */\n    tag_55:\n      0x00\n      0x01\n      swap1\n      sload\n      swap1\n      0x0100\n      exp\n      swap1\n      div\n      0xff\n      and\n      dup2\n      jump\t// out\n        /* \"#utility.yul\":7:133   */\n    tag_60:\n        /* \"#utility.yul\":44:51   */\n      0x00\n        /* \"#utility.yul\":84:126   */\n      0xffffffffffffffffffffffffffffffffffffffff\n        /* \"#utility.yul\":77:82   */\n      dup3\n        /* \"#utility.yul\":73:127   */\n      and\n        /* \"#utility.yul\":62:127   */\n      swap1\n      pop\n        /* \"#utility.yul\":7:133   */\n      swap2\n      swap1\n      pop\n      jump\t// out\n        /* \"#utility.yul\":139:235   */\n    tag_61:\n        /* \"#utility.yul\":176:183   */\n      0x00\n        /* \"#utility.yul\":205:229   */\n      tag_79\n        /* \"#utility.yul\":223:228   */\n      dup3\n        /* \"#utility.yul\":205:229   */\n      tag_60\n      jump\t// in\n    tag_79:\n        /* \"#utility.yul\":194:229   */\n      swap1\n      pop\n        /* \"#utility.yul\":139:235   */\n      swap2\n      swap1\n      pop\n      jump\t// out\n        /* \"#utility.yul\":241:359   */\n    tag_62:\n        /* \"#utility.yul\":328:352   */\n      tag_81\n        /* \"#utility.yul\":346:351   */\n      dup2\n        /* \"#utility.yul\":328:352   */\n      tag_61\n      jump\t// in\n    tag_81:\n        /* \"#utility.yul\":323:326   */\n      dup3\n        /* \"#utility.yul\":316:353   */\n      mstore\n        /* \"#utility.yul\":241:359   */\n      pop\n      pop\n      jump\t// out\n        /* \"#utility.yul\":365:587   */\n    tag_19:\n        /* \"#utility.yul\":458:462   */\n      0x00\n        /* \"#utility.yul\":496:498   */\n      0x20\n        /* \"#utility.yul\":485:494   */\n      dup3\n        /* \"#utility.yul\":481:499   */\n      add\n        /* \"#utility.yul\":473:499   */\n      swap1\n      pop\n        /* \"#utility.yul\":509:580   */\n      tag_83\n        /* \"#utility.yul\":577:578   */\n      0x00\n        /* \"#utility.yul\":566:575   */\n      dup4\n        /* \"#utility.yul\":562:579   */\n      add\n        /* \"#utility.yul\":553:559   */\n      dup5\n        /* \"#utility.yul\":509:580   */\n      tag_62\n      jump\t// in\n    tag_83:\n        /* \"#utility.yul\":365:587   */\n      swap3\n      swap2\n      pop\n      pop\n      jump\t// out\n        /* \"#utility.yul\":593:682   */\n    tag_63:\n        /* \"#utility.yul\":629:636   */\n      0x00\n        /* \"#utility.yul\":669:675   */\n      0xffff\n        /* \"#utility.yul\":662:667   */\n      dup3\n        /* \"#utility.yul\":658:676   */\n      and\n        /* \"#utility.yul\":647:676   */\n      swap1\n      pop\n        /* \"#utility.yul\":593:682   */\n      swap2\n      swap1\n      pop\n      jump\t// out\n        /* \"#utility.yul\":688:803   */\n    tag_64:\n        /* \"#utility.yul\":773:796   */\n      tag_86\n        /* \"#utility.yul\":790:795   */\n      dup2\n        /* \"#utility.yul\":773:796   */\n      tag_63\n      jump\t// in\n    tag_86:\n        /* \"#utility.yul\":768:771   */\n      dup3\n        /* \"#utility.yul\":761:797   */\n      mstore\n        /* \"#utility.yul\":688:803   */\n      pop\n      pop\n      jump\t// out\n        /* \"#utility.yul\":809:1027   */\n    tag_23:\n        /* \"#utility.yul\":900:904   */\n      0x00\n        /* \"#utility.yul\":938:940   */\n      0x20\n        /* \"#utility.yul\":927:936   */\n      dup3\n        /* \"#utility.yul\":923:941   */\n      add\n        /* \"#utility.yul\":915:941   */\n      swap1\n      pop\n        /* \"#utility.yul\":951:1020   */\n      tag_88\n        /* \"#utility.yul\":1017:1018   */\n      0x00\n        /* \"#utility.yul\":1006:1015   */\n      dup4\n        /* \"#utility.yul\":1002:1019   */\n      add\n        /* \"#utility.yul\":993:999   */\n      dup5\n        /* \"#utility.yul\":951:1020   */\n      tag_64\n      jump\t// in\n    tag_88:\n        /* \"#utility.yul\":809:1027   */\n      swap3\n      swap2\n      pop\n      pop\n      jump\t// out\n        /* \"#utility.yul\":1033:1110   */\n    tag_65:\n        /* \"#utility.yul\":1070:1077   */\n      0x00\n        /* \"#utility.yul\":1099:1104   */\n      dup2\n        /* \"#utility.yul\":1088:1104   */\n      swap1\n      pop\n        /* \"#utility.yul\":1033:1110   */\n      swap2\n      swap1\n      pop\n      jump\t// out\n        /* \"#utility.yul\":1116:1234   */\n    tag_66:\n        /* \"#utility.yul\":1203:1227   */\n      tag_91\n        /* \"#utility.yul\":1221:1226   */\n      dup2\n        /* \"#utility.yul\":1203:1227   */\n      tag_65\n      jump\t// in\n    tag_91:\n        /* \"#utility.yul\":1198:1201   */\n      dup3\n        /* \"#utility.yul\":1191:1228   */\n      mstore\n        /* \"#utility.yul\":1116:1234   */\n      pop\n      pop\n      jump\t// out\n        /* \"#utility.yul\":1240:1462   */\n    tag_27:\n        /* \"#utility.yul\":1333:1337   */\n      0x00\n        /* \"#utility.yul\":1371:1373   */\n      0x20\n        /* \"#utility.yul\":1360:1369   */\n      dup3\n        /* \"#utility.yul\":1356:1374   */\n      add\n        /* \"#utility.yul\":1348:1374   */\n      swap1\n      pop\n        /* \"#utility.yul\":1384:1455   */\n      tag_93\n        /* \"#utility.yul\":1452:1453   */\n      0x00\n        /* \"#utility.yul\":1441:1450   */\n      dup4\n        /* \"#utility.yul\":1437:1454   */\n      add\n        /* \"#utility.yul\":1428:1434   */\n      dup5\n        /* \"#utility.yul\":1384:1455   */\n      tag_66\n      jump\t// in\n    tag_93:\n        /* \"#utility.yul\":1240:1462   */\n      swap3\n      swap2\n      pop\n      pop\n      jump\t// out\n        /* \"#utility.yul\":1468:1558   */\n    tag_67:\n        /* \"#utility.yul\":1502:1509   */\n      0x00\n        /* \"#utility.yul\":1545:1550   */\n      dup2\n        /* \"#utility.yul\":1538:1551   */\n      iszero\n        /* \"#utility.yul\":1531:1552   */\n      iszero\n        /* \"#utility.yul\":1520:1552   */\n      swap1\n      pop\n        /* \"#utility.yul\":1468:1558   */\n      swap2\n      swap1\n      pop\n      jump\t// out\n        /* \"#utility.yul\":1564:1673   */\n    tag_68:\n        /* \"#utility.yul\":1645:1666   */\n      tag_96\n        /* \"#utility.yul\":1660:1665   */\n      dup2\n        /* \"#utility.yul\":1645:1666   */\n      tag_67\n      jump\t// in\n    tag_96:\n        /* \"#utility.yul\":1640:1643   */\n      dup3\n        /* \"#utility.yul\":1633:1667   */\n      mstore\n        /* \"#utility.yul\":1564:1673   */\n      pop\n      pop\n      jump\t// out\n        /* \"#utility.yul\":1679:1889   */\n    tag_34:\n        /* \"#utility.yul\":1766:1770   */\n      0x00\n        /* \"#utility.yul\":1804:1806   */\n      0x20\n        /* \"#utility.yul\":1793:1802   */\n      dup3\n        /* \"#utility.yul\":1789:1807   */\n      add\n        /* \"#utility.yul\":1781:1807   */\n      swap1\n      pop\n        /* \"#utility.yul\":1817:1882   */\n      tag_98\n        /* \"#utility.yul\":1879:1880   */\n      0x00\n        /* \"#utility.yul\":1868:1877   */\n      dup4\n        /* \"#utility.yul\":1864:1881   */\n      add\n        /* \"#utility.yul\":1855:1861   */\n      dup5\n        /* \"#utility.yul\":1817:1882   */\n      tag_68\n      jump\t// in\n    tag_98:\n        /* \"#utility.yul\":1679:1889   */\n      swap3\n      swap2\n      pop\n      pop\n      jump\t// out\n        /* \"#utility.yul\":1976:2093   */\n    tag_70:\n        /* \"#utility.yul\":2085:2086   */\n      0x00\n        /* \"#utility.yul\":2082:2083   */\n      dup1\n        /* \"#utility.yul\":2075:2087   */\n      revert\n        /* \"#utility.yul\":2222:2344   */\n    tag_72:\n        /* \"#utility.yul\":2295:2319   */\n      tag_103\n        /* \"#utility.yul\":2313:2318   */\n      dup2\n        /* \"#utility.yul\":2295:2319   */\n      tag_65\n      jump\t// in\n    tag_103:\n        /* \"#utility.yul\":2288:2293   */\n      dup2\n        /* \"#utility.yul\":2285:2320   */\n      eq\n        /* \"#utility.yul\":2275:2338   */\n      tag_104\n      jumpi\n        /* \"#utility.yul\":2334:2335   */\n      0x00\n        /* \"#utility.yul\":2331:2332   */\n      dup1\n        /* \"#utility.yul\":2324:2336   */\n      revert\n        /* \"#utility.yul\":2275:2338   */\n    tag_104:\n        /* \"#utility.yul\":2222:2344   */\n      pop\n      jump\t// out\n        /* \"#utility.yul\":2350:2489   */\n    tag_73:\n        /* \"#utility.yul\":2396:2401   */\n      0x00\n        /* \"#utility.yul\":2434:2440   */\n      dup2\n        /* \"#utility.yul\":2421:2441   */\n      calldataload\n        /* \"#utility.yul\":2412:2441   */\n      swap1\n      pop\n        /* \"#utility.yul\":2450:2483   */\n      tag_106\n        /* \"#utility.yul\":2477:2482   */\n      dup2\n        /* \"#utility.yul\":2450:2483   */\n      tag_72\n      jump\t// in\n    tag_106:\n        /* \"#utility.yul\":2350:2489   */\n      swap3\n      swap2\n      pop\n      pop\n      jump\t// out\n        /* \"#utility.yul\":2495:2824   */\n    tag_40:\n        /* \"#utility.yul\":2554:2560   */\n      0x00\n        /* \"#utility.yul\":2603:2605   */\n      0x20\n        /* \"#utility.yul\":2591:2600   */\n      dup3\n        /* \"#utility.yul\":2582:2589   */\n      dup5\n        /* \"#utility.yul\":2578:2601   */\n      sub\n        /* \"#utility.yul\":2574:2606   */\n      slt\n        /* \"#utility.yul\":2571:2690   */\n      iszero\n      tag_108\n      jumpi\n        /* \"#utility.yul\":2609:2688   */\n      tag_109\n      tag_70\n      jump\t// in\n    tag_109:\n        /* \"#utility.yul\":2571:2690   */\n    tag_108:\n        /* \"#utility.yul\":2729:2730   */\n      0x00\n        /* \"#utility.yul\":2754:2807   */\n      tag_110\n        /* \"#utility.yul\":2799:2806   */\n      dup5\n        /* \"#utility.yul\":2790:2796   */\n      dup3\n        /* \"#utility.yul\":2779:2788   */\n      dup6\n        /* \"#utility.yul\":2775:2797   */\n      add\n        /* \"#utility.yul\":2754:2807   */\n      tag_73\n      jump\t// in\n    tag_110:\n        /* \"#utility.yul\":2744:2807   */\n      swap2\n      pop\n        /* \"#utility.yul\":2700:2817   */\n      pop\n        /* \"#utility.yul\":2495:2824   */\n      swap3\n      swap2\n      pop\n      pop\n      jump\t// out\n        /* \"#utility.yul\":2830:2916   */\n    tag_74:\n        /* \"#utility.yul\":2865:2872   */\n      0x00\n        /* \"#utility.yul\":2905:2909   */\n      0xff\n        /* \"#utility.yul\":2898:2903   */\n      dup3\n        /* \"#utility.yul\":2894:2910   */\n      and\n        /* \"#utility.yul\":2883:2910   */\n      swap1\n      pop\n        /* \"#utility.yul\":2830:2916   */\n      swap2\n      swap1\n      pop\n      jump\t// out\n        /* \"#utility.yul\":2922:3034   */\n    tag_75:\n        /* \"#utility.yul\":3005:3027   */\n      tag_113\n        /* \"#utility.yul\":3021:3026   */\n      dup2\n        /* \"#utility.yul\":3005:3027   */\n      tag_74\n      jump\t// in\n    tag_113:\n        /* \"#utility.yul\":3000:3003   */\n      dup3\n        /* \"#utility.yul\":2993:3028   */\n      mstore\n        /* \"#utility.yul\":2922:3034   */\n      pop\n      pop\n      jump\t// out\n        /* \"#utility.yul\":3040:3254   */\n    tag_57:\n        /* \"#utility.yul\":3129:3133   */\n      0x00\n        /* \"#utility.yul\":3167:3169   */\n      0x20\n        /* \"#utility.yul\":3156:3165   */\n      dup3\n        /* \"#utility.yul\":3152:3170   */\n      add\n        /* \"#utility.yul\":3144:3170   */\n      swap1\n      pop\n        /* \"#utility.yul\":3180:3247   */\n      tag_115\n        /* \"#utility.yul\":3244:3245   */\n      0x00\n        /* \"#utility.yul\":3233:3242   */\n      dup4\n        /* \"#utility.yul\":3229:3246   */\n      add\n        /* \"#utility.yul\":3220:3226   */\n      dup5\n        /* \"#utility.yul\":3180:3247   */\n      tag_75\n      jump\t// in\n    tag_115:\n        /* \"#utility.yul\":3040:3254   */\n      swap3\n      swap2\n      pop\n      pop\n      jump\t// out\n\n    auxdata: 0xa264697066735822122071c4a98a193012a578e6394f6c7b792ae06f9de303a7a2fe79aeacf8325e1b1a64736f6c634300081a0033\n}\n",
				"bytecode": {
					"linkReferences": {},
					"object": "60c060405260015f806101000a81548160ff02191690831515021790555060015f60016101000a81548160ff021916908360ff1602179055506130395f60026101000a81548161ffff021916908361ffff16021790555062bc614e60015560b560f81b60025f6101000a81548160ff021916908360f81c021790555061123460f01b600260016101000a81548161ffff021916908360f01c0217905550731234567890123456789012345678901234567890600260036101000a81548173ffffffffffffffffffffffffffffffffffffffff021916908373ffffffffffffffffffffffffffffffffffffffff1602179055503480156100fc575f80fd5b5060405161067e38038061067e833981810160405281019061011e9190610197565b3373ffffffffffffffffffffffffffffffffffffffff1660808173ffffffffffffffffffffffffffffffffffffffff16815250508060a08181525050506101c2565b5f80fd5b5f819050919050565b61017681610164565b8114610180575f80fd5b50565b5f815190506101918161016d565b92915050565b5f602082840312156101ac576101ab610160565b5b5f6101b984828501610183565b91505092915050565b60805160a05161049b6101e35f395f6102b301525f61021e015261049b5ff3fe608060405234801561000f575f80fd5b50600436106100b2575f3560e01c806360fe47b11161006f57806360fe47b11461016a5780636d4ce63c1461018657806375da9f76146101a4578063767800de146101c2578063aa9cc775146101e0578063ab3a58a3146101fe576100b2565b806312eeaea1146100b65780631aa35610146100d45780631f6649e3146100f25780633a756cec146101105780634b3df2001461012e5780634e70b1dc1461014c575b5f80fd5b6100be61021c565b6040516100cb9190610326565b60405180910390f35b6100dc610240565b6040516100e9919061035b565b60405180910390f35b6100fa610253565b604051610107919061038c565b60405180910390f35b610118610258565b6040516101259190610326565b60405180910390f35b61013661025c565b60405161014391906103bf565b60405180910390f35b61015461026c565b604051610161919061038c565b60405180910390f35b610184600480360381019061017f9190610406565b610272565b005b61018e61027c565b60405161019b919061038c565b60405180910390f35b6101ac610285565b6040516101b9919061038c565b60405180910390f35b6101ca61028b565b6040516101d79190610326565b60405180910390f35b6101e86102b1565b6040516101f5919061038c565b60405180910390f35b6102066102d5565b604051610213919061044c565b60405180910390f35b7f000000000000000000000000000000000000000000000000000000000000000081565b5f60029054906101000a900461ffff1681565b607b81565b5f81565b5f8054906101000a900460ff1681565b60035481565b8060038190555050565b5f600354905090565b60015481565b600260039054906101000a900473ffffffffffffffffffffffffffffffffffffffff1681565b7f000000000000000000000000000000000000000000000000000000000000000081565b5f60019054906101000a900460ff1681565b5f73ffffffffffffffffffffffffffffffffffffffff82169050919050565b5f610310826102e7565b9050919050565b61032081610306565b82525050565b5f6020820190506103395f830184610317565b92915050565b5f61ffff82169050919050565b6103558161033f565b82525050565b5f60208201905061036e5f83018461034c565b92915050565b5f819050919050565b61038681610374565b82525050565b5f60208201905061039f5f83018461037d565b92915050565b5f8115159050919050565b6103b9816103a5565b82525050565b5f6020820190506103d25f8301846103b0565b92915050565b5f80fd5b6103e581610374565b81146103ef575f80fd5b50565b5f81359050610400816103dc565b92915050565b5f6020828403121561041b5761041a6103d8565b5b5f610428848285016103f2565b91505092915050565b5f60ff82169050919050565b61044681610431565b82525050565b5f60208201905061045f5f83018461043d565b9291505056fea264697066735822122071c4a98a193012a578e6394f6c7b792ae06f9de303a7a2fe79aeacf8325e1b1a64736f6c634300081a0033",
					"opcodes": "PUSH1 0xC0 PUSH1 0x40 MSTORE PUSH1 0x1 PUSH0 DUP1 PUSH2 0x100 EXP DUP2 SLOAD DUP2 PUSH1 0xFF MUL NOT AND SWAP1 DUP4 ISZERO ISZERO MUL OR SWAP1 SSTORE POP PUSH1 0x1 PUSH0 PUSH1 0x1 PUSH2 0x100 EXP DUP2 SLOAD DUP2 PUSH1 0xFF MUL NOT AND SWAP1 DUP4 PUSH1 0xFF AND MUL OR SWAP1 SSTORE POP PUSH2 0x3039 PUSH0 PUSH1 0x2 PUSH2 0x100 EXP DUP2 SLOAD DUP2 PUSH2 0xFFFF MUL NOT AND SWAP1 DUP4 PUSH2 0xFFFF AND MUL OR SWAP1 SSTORE POP PUSH3 0xBC614E PUSH1 0x1 SSTORE PUSH1 0xB5 PUSH1 0xF8 SHL PUSH1 0x2 PUSH0 PUSH2 0x100 EXP DUP2 SLOAD DUP2 PUSH1 0xFF MUL NOT AND SWAP1 DUP4 PUSH1 0xF8 SHR MUL OR SWAP1 SSTORE POP PUSH2 0x1234 PUSH1 0xF0 SHL PUSH1 0x2 PUSH1 0x1 PUSH2 0x100 EXP DUP2 SLOAD DUP2 PUSH2 0xFFFF MUL NOT AND SWAP1 DUP4 PUSH1 0xF0 SHR MUL OR SWAP1 SSTORE POP PUSH20 0x1234567890123456789012345678901234567890 PUSH1 0x2 PUSH1 0x3 PUSH2 0x100 EXP DUP2 SLOAD DUP2 PUSH20 0xFFFFFFFFFFFFFFFFFFFFFFFFFFFFFFFFFFFFFFFF MUL NOT AND SWAP1 DUP4 PUSH20 0xFFFFFFFFFFFFFFFFFFFFFFFFFFFFFFFFFFFFFFFF AND MUL OR SWAP1 SSTORE POP CALLVALUE DUP1 ISZERO PUSH2 0xFC JUMPI PUSH0 DUP1 REVERT JUMPDEST POP PUSH1 0x40 MLOAD PUSH2 0x67E CODESIZE SUB DUP1 PUSH2 0x67E DUP4 CODECOPY DUP2 DUP2 ADD PUSH1 0x40 MSTORE DUP2 ADD SWAP1 PUSH2 0x11E SWAP2 SWAP1 PUSH2 0x197 JUMP JUMPDEST CALLER PUSH20 0xFFFFFFFFFFFFFFFFFFFFFFFFFFFFFFFFFFFFFFFF AND PUSH1 0x80 DUP2 PUSH20 0xFFFFFFFFFFFFFFFFFFFFFFFFFFFFFFFFFFFFFFFF AND DUP2 MSTORE POP POP DUP1 PUSH1 0xA0 DUP2 DUP2 MSTORE POP POP POP PUSH2 0x1C2 JUMP JUMPDEST PUSH0 DUP1 REVERT JUMPDEST PUSH0 DUP2 SWAP1 POP SWAP2 SWAP1 POP JUMP JUMPDEST PUSH2 0x176 DUP2 PUSH2 0x164 JUMP JUMPDEST DUP2 EQ PUSH2 0x180 JUMPI PUSH0 DUP1 REVERT JUMPDEST POP JUMP JUMPDEST PUSH0 DUP2 MLOAD SWAP1 POP PUSH2 0x191 DUP2 PUSH2 0x16D JUMP JUMPDEST SWAP3 SWAP2 POP POP JUMP JUMPDEST PUSH0 PUSH1 0x20 DUP3 DUP5 SUB SLT ISZERO PUSH2 0x1AC JUMPI PUSH2 0x1AB PUSH2 0x160 JUMP JUMPDEST JUMPDEST PUSH0 PUSH2 0x1B9 DUP5 DUP3 DUP6 ADD PUSH2 0x183 JUMP JUMPDEST SWAP2 POP POP SWAP3 SWAP2 POP POP JUMP JUMPDEST PUSH1 0x80 MLOAD PUSH1 0xA0 MLOAD PUSH2 0x49B PUSH2 0x1E3 PUSH0 CODECOPY PUSH0 PUSH2 0x2B3 ADD MSTORE PUSH0 PUSH2 0x21E ADD MSTORE PUSH2 0x49B PUSH0 RETURN INVALID PUSH1 0x80 PUSH1 0x40 MSTORE CALLVALUE DUP1 ISZERO PUSH2 0xF JUMPI PUSH0 DUP1 REVERT JUMPDEST POP PUSH1 0x4 CALLDATASIZE LT PUSH2 0xB2 JUMPI PUSH0 CALLDATALOAD PUSH1 0xE0 SHR DUP1 PUSH4 0x60FE47B1 GT PUSH2 0x6F JUMPI DUP1 PUSH4 0x60FE47B1 EQ PUSH2 0x16A JUMPI DUP1 PUSH4 0x6D4CE63C EQ PUSH2 0x186 JUMPI DUP1 PUSH4 0x75DA9F76 EQ PUSH2 0x1A4 JUMPI DUP1 PUSH4 0x767800DE EQ PUSH2 0x1C2 JUMPI DUP1 PUSH4 0xAA9CC775 EQ PUSH2 0x1E0 JUMPI DUP1 PUSH4 0xAB3A58A3 EQ PUSH2 0x1FE JUMPI PUSH2 0xB2 JUMP JUMPDEST DUP1 PUSH4 0x12EEAEA1 EQ PUSH2 0xB6 JUMPI DUP1 PUSH4 0x1AA35610 EQ PUSH2 0xD4 JUMPI DUP1 PUSH4 0x1F6649E3 EQ PUSH2 0xF2 JUMPI DUP1 PUSH4 0x3A756CEC EQ PUSH2 0x110 JUMPI DUP1 PUSH4 0x4B3DF200 EQ PUSH2 0x12E JUMPI DUP1 PUSH4 0x4E70B1DC EQ PUSH2 0x14C JUMPI JUMPDEST PUSH0 DUP1 REVERT JUMPDEST PUSH2 0xBE PUSH2 0x21C JUMP JUMPDEST PUSH1 0x40 MLOAD PUSH2 0xCB SWAP2 SWAP1 PUSH2 0x326 JUMP JUMPDEST PUSH1 0x40 MLOAD DUP1 SWAP2 SUB SWAP1 RETURN JUMPDEST PUSH2 0xDC PUSH2 0x240 JUMP JUMPDEST PUSH1 0x40 MLOAD PUSH2 0xE9 SWAP2 SWAP1 PUSH2 0x35B JUMP JUMPDEST PUSH1 0x40 MLOAD DUP1 SWAP2 SUB SWAP1 RETURN JUMPDEST PUSH2 0xFA PUSH2 0x253 JUMP JUMPDEST PUSH1 0x40 MLOAD PUSH2 0x107 SWAP2 SWAP1 PUSH2 0x38C JUMP JUMPDEST PUSH1 0x40 MLOAD DUP1 SWAP2 SUB SWAP1 RETURN JUMPDEST PUSH2 0x118 PUSH2 0x258 JUMP JUMPDEST PUSH1 0x40 MLOAD PUSH2 0x125 SWAP2 SWAP1 PUSH2 0x326 JUMP JUMPDEST PUSH1 0x40 MLOAD DUP1 SWAP2 SUB SWAP1 RETURN JUMPDEST PUSH2 0x136 PUSH2 0x25C JUMP JUMPDEST PUSH1 0x40 MLOAD PUSH2 0x143 SWAP2 SWAP1 PUSH2 0x3BF JUMP JUMPDEST PUSH1 0x40 MLOAD DUP1 SWAP2 SUB SWAP1 RETURN JUMPDEST PUSH2 0x154 PUSH2 0x26C JUMP JUMPDEST PUSH1 0x40 MLOAD PUSH2 0x161 SWAP2 SWAP1 PUSH2 0x38C JUMP JUMPDEST PUSH1 0x40 MLOAD DUP1 SWAP2 SUB SWAP1 RETURN JUMPDEST PUSH2 0x184 PUSH1 0x4 DUP1 CALLDATASIZE SUB DUP2 ADD SWAP1 PUSH2 0x17F SWAP2 SWAP1 PUSH2 0x406 JUMP JUMPDEST PUSH2 0x272 JUMP JUMPDEST STOP JUMPDEST PUSH2 0x18E PUSH2 0x27C JUMP JUMPDEST PUSH1 0x40 MLOAD PUSH2 0x19B SWAP2 SWAP1 PUSH2 0x38C JUMP JUMPDEST PUSH1 0x40 MLOAD DUP1 SWAP2 SUB SWAP1 RETURN JUMPDEST PUSH2 0x1AC PUSH2 0x285 JUMP JUMPDEST PUSH1 0x40 MLOAD PUSH2 0x1B9 SWAP2 SWAP1 PUSH2 0x38C JUMP JUMPDEST PUSH1 0x40 MLOAD DUP1 SWAP2 SUB SWAP1 RETURN JUMPDEST PUSH2 0x1CA PUSH2 0x28B JUMP JUMPDEST PUSH1 0x40 MLOAD PUSH2 0x1D7 SWAP2 SWAP1 PUSH2 0x326 JUMP JUMPDEST PUSH1 0x40 MLOAD DUP1 SWAP2 SUB SWAP1 RETURN JUMPDEST PUSH2 0x1E8 PUSH2 0x2B1 JUMP JUMPDEST PUSH1 0x40 MLOAD PUSH2 0x1F5 SWAP2 SWAP1 PUSH2 0x38C JUMP JUMPDEST PUSH1 0x40 MLOAD DUP1 SWAP2 SUB SWAP1 RETURN JUMPDEST PUSH2 0x206 PUSH2 0x2D5 JUMP JUMPDEST PUSH1 0x40 MLOAD PUSH2 0x213 SWAP2 SWAP1 PUSH2 0x44C JUMP JUMPDEST PUSH1 0x40 MLOAD DUP1 SWAP2 SUB SWAP1 RETURN JUMPDEST PUSH32 0x0 DUP2 JUMP JUMPDEST PUSH0 PUSH1 0x2 SWAP1 SLOAD SWAP1 PUSH2 0x100 EXP SWAP1 DIV PUSH2 0xFFFF AND DUP2 JUMP JUMPDEST PUSH1 0x7B DUP2 JUMP JUMPDEST PUSH0 DUP2 JUMP JUMPDEST PUSH0 DUP1 SLOAD SWAP1 PUSH2 0x100 EXP SWAP1 DIV PUSH1 0xFF AND DUP2 JUMP JUMPDEST PUSH1 0x3 SLOAD DUP2 JUMP JUMPDEST DUP1 PUSH1 0x3 DUP2 SWAP1 SSTORE POP POP JUMP JUMPDEST PUSH0 PUSH1 0x3 SLOAD SWAP1 POP SWAP1 JUMP JUMPDEST PUSH1 0x1 SLOAD DUP2 JUMP JUMPDEST PUSH1 0x2 PUSH1 0x3 SWAP1 SLOAD SWAP1 PUSH2 0x100 EXP SWAP1 DIV PUSH20 0xFFFFFFFFFFFFFFFFFFFFFFFFFFFFFFFFFFFFFFFF AND DUP2 JUMP JUMPDEST PUSH32 0x0 DUP2 JUMP JUMPDEST PUSH0 PUSH1 0x1 SWAP1 SLOAD SWAP1 PUSH2 0x100 EXP SWAP1 DIV PUSH1 0xFF AND DUP2 JUMP JUMPDEST PUSH0 PUSH20 0xFFFFFFFFFFFFFFFFFFFFFFFFFFFFFFFFFFFFFFFF DUP3 AND SWAP1 POP SWAP2 SWAP1 POP JUMP JUMPDEST PUSH0 PUSH2 0x310 DUP3 PUSH2 0x2E7 JUMP JUMPDEST SWAP1 POP SWAP2 SWAP1 POP JUMP JUMPDEST PUSH2 0x320 DUP2 PUSH2 0x306 JUMP JUMPDEST DUP3 MSTORE POP POP JUMP JUMPDEST PUSH0 PUSH1 0x20 DUP3 ADD SWAP1 POP PUSH2 0x339 PUSH0 DUP4 ADD DUP5 PUSH2 0x317 JUMP JUMPDEST SWAP3 SWAP2 POP POP JUMP JUMPDEST PUSH0 PUSH2 0xFFFF DUP3 AND SWAP1 POP SWAP2 SWAP1 POP JUMP JUMPDEST PUSH2 0x355 DUP2 PUSH2 0x33F JUMP JUMPDEST DUP3 MSTORE POP POP JUMP JUMPDEST PUSH0 PUSH1 0x20 DUP3 ADD SWAP1 POP PUSH2 0x36E PUSH0 DUP4 ADD DUP5 PUSH2 0x34C JUMP JUMPDEST SWAP3 SWAP2 POP POP JUMP JUMPDEST PUSH0 DUP2 SWAP1 POP SWAP2 SWAP1 POP JUMP JUMPDEST PUSH2 0x386 DUP2 PUSH2 0x374 JUMP JUMPDEST DUP3 MSTORE POP POP JUMP JUMPDEST PUSH0 PUSH1 0x20 DUP3 ADD SWAP1 POP PUSH2 0x39F PUSH0 DUP4 ADD DUP5 PUSH2 0x37D JUMP JUMPDEST SWAP3 SWAP2 POP POP JUMP JUMPDEST PUSH0 DUP2 ISZERO ISZERO SWAP1 POP SWAP2 SWAP1 POP JUMP JUMPDEST PUSH2 0x3B9 DUP2 PUSH2 0x3A5 JUMP JUMPDEST DUP3 MSTORE POP POP JUMP JUMPDEST PUSH0 PUSH1 0x20 DUP3 ADD SWAP1 POP PUSH2 0x3D2 PUSH0 DUP4 ADD DUP5 PUSH2 0x3B0 JUMP JUMPDEST SWAP3 SWAP2 POP POP JUMP JUMPDEST PUSH0 DUP1 REVERT JUMPDEST PUSH2 0x3E5 DUP2 PUSH2 0x374 JUMP JUMPDEST DUP2 EQ PUSH2 0x3EF JUMPI PUSH0 DUP1 REVERT JUMPDEST POP JUMP JUMPDEST PUSH0 DUP2 CALLDATALOAD SWAP1 POP PUSH2 0x400 DUP2 PUSH2 0x3DC JUMP JUMPDEST SWAP3 SWAP2 POP POP JUMP JUMPDEST PUSH0 PUSH1 0x20 DUP3 DUP5 SUB SLT ISZERO PUSH2 0x41B JUMPI PUSH2 0x41A PUSH2 0x3D8 JUMP JUMPDEST JUMPDEST PUSH0 PUSH2 0x428 DUP5 DUP3 DUP6 ADD PUSH2 0x3F2 JUMP JUMPDEST SWAP2 POP POP SWAP3 SWAP2 POP POP JUMP JUMPDEST PUSH0 PUSH1 0xFF DUP3 AND SWAP1 POP SWAP2 SWAP1 POP JUMP JUMPDEST PUSH2 0x446 DUP2 PUSH2 0x431 JUMP JUMPDEST DUP3 MSTORE POP POP JUMP JUMPDEST PUSH0 PUSH1 0x20 DUP3 ADD SWAP1 POP PUSH2 0x45F PUSH0 DUP4 ADD DUP5 PUSH2 0x43D JUMP JUMPDEST SWAP3 SWAP2 POP POP JUMP INVALID LOG2 PUSH5 0x6970667358 0x22 SLT KECCAK256 PUSH18 0xC4A98A193012A578E6394F6C7B792AE06F9D 0xE3 SUB 0xA7 LOG2 INVALID PUSH26 0xAEACF8325E1B1A64736F6C634300081A00330000000000000000 "
				},
				"gasEstimates": {
					"creation": {
						"codeDepositCost": "235800",
						"executionCost": "infinite",
						"totalCost": "infinite"
					},
					"external": {
						"MY_ADDRESS()": "439",
						"MY_UINT()": "370",
						"addr()": "2625",
						"boo()": "2552",
						"get()": "2454",
						"myAddress2()": "infinite",
						"myUint2()": "infinite",
						"num()": "2536",
						"set(uint256)": "22515",
						"u1()": "2539",
						"u2()": "2469",
						"u8()": "2626"
					}
				},
				"methodIdentifiers": {
					"MY_ADDRESS()": "3a756cec",
					"MY_UINT()": "1f6649e3",
					"addr()": "767800de",
					"boo()": "4b3df200",
					"get()": "6d4ce63c",
					"myAddress2()": "12eeaea1",
					"myUint2()": "aa9cc775",
					"num()": "4e70b1dc",
					"set(uint256)": "60fe47b1",
					"u1()": "1aa35610",
					"u2()": "75da9f76",
					"u8()": "ab3a58a3"
				}
			},
			"storageLayout": {
				"storage": [
					{
						"astId": 4,
						"contract": "contracts/Primitives.sol:Primitives",
						"label": "boo",
						"offset": 0,
						"slot": "0",
						"type": "t_bool"
					},
					{
						"astId": 7,
						"contract": "contracts/Primitives.sol:Primitives",
						"label": "u8",
						"offset": 1,
						"slot": "0",
						"type": "t_uint8"
					},
					{
						"astId": 10,
						"contract": "contracts/Primitives.sol:Primitives",
						"label": "u1",
						"offset": 2,
						"slot": "0",
						"type": "t_uint16"
					},
					{
						"astId": 13,
						"contract": "contracts/Primitives.sol:Primitives",
						"label": "u2",
						"offset": 0,
						"slot": "1",
						"type": "t_uint256"
					},
					{
						"astId": 16,
						"contract": "contracts/Primitives.sol:Primitives",
						"label": "a",
						"offset": 0,
						"slot": "2",
						"type": "t_bytes1"
					},
					{
						"astId": 19,
						"contract": "contracts/Primitives.sol:Primitives",
						"label": "b",
						"offset": 1,
						"slot": "2",
						"type": "t_bytes2"
					},
					{
						"astId": 22,
						"contract": "contracts/Primitives.sol:Primitives",
						"label": "addr",
						"offset": 3,
						"slot": "2",
						"type": "t_address"
					},
					{
						"astId": 49,
						"contract": "contracts/Primitives.sol:Primitives",
						"label": "num",
						"offset": 0,
						"slot": "3",
						"type": "t_uint256"
					}
				],
				"types": {
					"t_address": {
						"encoding": "inplace",
						"label": "address",
						"numberOfBytes": "20"
					},
					"t_bool": {
						"encoding": "inplace",
						"label": "bool",
						"numberOfBytes": "1"
					},
					"t_bytes1": {
						"encoding": "inplace",
						"label": "bytes1",
						"numberOfBytes": "1"
					},
					"t_bytes2": {
						"encoding": "inplace",
						"label": "bytes2",
						"numberOfBytes": "2"
					},
					"t_uint16": {
						"encoding": "inplace",
						"label": "uint16",
						"numberOfBytes": "2"
					},
					"t_uint256": {
						"encoding": "inplace",
						"label": "uint256",
						"numberOfBytes": "32"
					},
					"t_uint8": {
						"encoding": "inplace",
						"label": "uint8",
						"numberOfBytes": "1"
					}
				}
			},
			"userdoc": {
				"kind": "user",
				"methods": {},
				"version": 1
			}
		}
	}
}