{
	"contracts/Account.sol": {
		"Account": {
			"abi": [
				{
					"inputs": [],
					"name": "MAX_UINT",
					"outputs": [
						{
							"internalType": "uint256",
							"name": "",
							"type": "uint256"
						}
					],
					"stateMutability": "view",
					"type": "function"
				},
				{
					"inputs": [],
					"name": "balance",
					"outputs": [
						{
							"internalType": "uint256",
							"name": "",
							"type": "uint256"
						}
					],
					"stateMutability": "view",
					"type": "function"
				},
				{
					"inputs": [
						{
							"internalType": "uint256",
							"name": "_amount",
							"type": "uint256"
						}
					],
					"name": "deposit",
					"outputs": [],
					"stateMutability": "nonpayable",
					"type": "function"
				},
				{
					"inputs": [
						{
							"internalType": "uint256",
							"name": "_amount",
							"type": "uint256"
						}
					],
					"name": "withdraw",
					"outputs": [],
					"stateMutability": "nonpayable",
					"type": "function"
				}
			],
			"devdoc": {
				"kind": "dev",
				"methods": {},
				"version": 1
			},
			"evm": {
				"assembly": "    /* \"contracts/Account.sol\":62:734  contract Account {... */\n  mstore(0x40, 0x80)\n  callvalue\n  dup1\n  iszero\n  tag_1\n  jumpi\n  0x00\n  dup1\n  revert\ntag_1:\n  pop\n  dataSize(sub_0)\n  dup1\n  dataOffset(sub_0)\n  0x00\n  codecopy\n  0x00\n  return\nstop\n\nsub_0: assembly {\n        /* \"contracts/Account.sol\":62:734  contract Account {... */\n      mstore(0x40, 0x80)\n      callvalue\n      dup1\n      iszero\n      tag_1\n      jumpi\n      0x00\n      dup1\n      revert\n    tag_1:\n      pop\n      jumpi(tag_2, lt(calldatasize, 0x04))\n      shr(0xe0, calldataload(0x00))\n      dup1\n      0x2e1a7d4d\n      eq\n      tag_3\n      jumpi\n      dup1\n      0xb69ef8a8\n      eq\n      tag_4\n      jumpi\n      dup1\n      0xb6b55f25\n      eq\n      tag_5\n      jumpi\n      dup1\n      0xe5b5019a\n      eq\n      tag_6\n      jumpi\n    tag_2:\n      0x00\n      dup1\n      revert\n        /* \"contracts/Account.sol\":438:732  function withdraw(uint256 _amount) public {... */\n    tag_3:\n      tag_7\n      0x04\n      dup1\n      calldatasize\n      sub\n      dup2\n      add\n      swap1\n      tag_8\n      swap2\n      swap1\n      tag_9\n      jump\t// in\n    tag_8:\n      tag_10\n      jump\t// in\n    tag_7:\n      stop\n        /* \"contracts/Account.sol\":85:107  uint256 public balance */\n    tag_4:\n      tag_11\n      tag_12\n      jump\t// in\n    tag_11:\n      mload(0x40)\n      tag_13\n      swap2\n      swap1\n      tag_14\n      jump\t// in\n    tag_13:\n      mload(0x40)\n      dup1\n      swap2\n      sub\n      swap1\n      return\n        /* \"contracts/Account.sol\":170:432  function deposit(uint256 _amount) public {... */\n    tag_5:\n      tag_15\n      0x04\n      dup1\n      calldatasize\n      sub\n      dup2\n      add\n      swap1\n      tag_16\n      swap2\n      swap1\n      tag_9\n      jump\t// in\n    tag_16:\n      tag_17\n      jump\t// in\n    tag_15:\n      stop\n        /* \"contracts/Account.sol\":113:159  uint256 public constant MAX_UINT = 2 ** 256 -1 */\n    tag_6:\n      tag_18\n      tag_19\n      jump\t// in\n    tag_18:\n      mload(0x40)\n      tag_20\n      swap2\n      swap1\n      tag_14\n      jump\t// in\n    tag_20:\n      mload(0x40)\n      dup1\n      swap2\n      sub\n      swap1\n      return\n        /* \"contracts/Account.sol\":438:732  function withdraw(uint256 _amount) public {... */\n    tag_10:\n        /* \"contracts/Account.sol\":490:508  uint256 oldBalance */\n      0x00\n        /* \"contracts/Account.sol\":511:518  balance */\n      dup1\n      sload\n        /* \"contracts/Account.sol\":490:518  uint256 oldBalance = balance */\n      swap1\n      pop\n        /* \"contracts/Account.sol\":548:555  _amount */\n      dup2\n        /* \"contracts/Account.sol\":537:544  balance */\n      sload(0x00)\n        /* \"contracts/Account.sol\":537:555  balance >= _amount */\n      lt\n      iszero\n        /* \"contracts/Account.sol\":529:572  require(balance >= _amount, \"Underflow!!!\") */\n      tag_22\n      jumpi\n      mload(0x40)\n      0x08c379a000000000000000000000000000000000000000000000000000000000\n      dup2\n      mstore\n      0x04\n      add\n      tag_23\n      swap1\n      tag_24\n      jump\t// in\n    tag_23:\n      mload(0x40)\n      dup1\n      swap2\n      sub\n      swap1\n      revert\n    tag_22:\n        /* \"contracts/Account.sol\":596:603  _amount */\n      dup2\n        /* \"contracts/Account.sol\":586:593  balance */\n      sload(0x00)\n        /* \"contracts/Account.sol\":586:603  balance < _amount */\n      lt\n        /* \"contracts/Account.sol\":583:649  if(balance < _amount) {... */\n      iszero\n      tag_25\n      jumpi\n        /* \"contracts/Account.sol\":619:638  revert(\"Underflow\") */\n      mload(0x40)\n      0x08c379a000000000000000000000000000000000000000000000000000000000\n      dup2\n      mstore\n      0x04\n      add\n      tag_26\n      swap1\n      tag_27\n      jump\t// in\n    tag_26:\n      mload(0x40)\n      dup1\n      swap2\n      sub\n      swap1\n      revert\n        /* \"contracts/Account.sol\":583:649  if(balance < _amount) {... */\n    tag_25:\n        /* \"contracts/Account.sol\":679:686  _amount */\n      dup2\n        /* \"contracts/Account.sol\":669:676  balance */\n      sload(0x00)\n        /* \"contracts/Account.sol\":669:686  balance - _amount */\n      tag_28\n      swap2\n      swap1\n      tag_29\n      jump\t// in\n    tag_28:\n        /* \"contracts/Account.sol\":659:666  balance */\n      0x00\n        /* \"contracts/Account.sol\":659:686  balance = balance - _amount */\n      dup2\n      swap1\n      sstore\n      pop\n        /* \"contracts/Account.sol\":714:724  oldBalance */\n      dup1\n        /* \"contracts/Account.sol\":703:710  balance */\n      sload(0x00)\n        /* \"contracts/Account.sol\":703:724  balance <= oldBalance */\n      gt\n      iszero\n        /* \"contracts/Account.sol\":696:725  assert(balance <= oldBalance) */\n      tag_30\n      jumpi\n      tag_31\n      tag_32\n      jump\t// in\n    tag_31:\n    tag_30:\n        /* \"contracts/Account.sol\":480:732  {... */\n      pop\n        /* \"contracts/Account.sol\":438:732  function withdraw(uint256 _amount) public {... */\n      pop\n      jump\t// out\n        /* \"contracts/Account.sol\":85:107  uint256 public balance */\n    tag_12:\n      sload(0x00)\n      dup2\n      jump\t// out\n        /* \"contracts/Account.sol\":170:432  function deposit(uint256 _amount) public {... */\n    tag_17:\n        /* \"contracts/Account.sol\":221:239  uint256 oldBalance */\n      0x00\n        /* \"contracts/Account.sol\":242:249  balance */\n      dup1\n      sload\n        /* \"contracts/Account.sol\":221:249  uint256 oldBalance = balance */\n      swap1\n      pop\n        /* \"contracts/Account.sol\":259:277  uint256 newBalance */\n      0x00\n        /* \"contracts/Account.sol\":290:297  _amount */\n      dup3\n        /* \"contracts/Account.sol\":280:287  balance */\n      sload(0x00)\n        /* \"contracts/Account.sol\":280:297  balance + _amount */\n      tag_34\n      swap2\n      swap1\n      tag_35\n      jump\t// in\n    tag_34:\n        /* \"contracts/Account.sol\":259:297  uint256 newBalance = balance + _amount */\n      swap1\n      pop\n        /* \"contracts/Account.sol\":330:340  oldBalance */\n      dup2\n        /* \"contracts/Account.sol\":316:326  newBalance */\n      dup2\n        /* \"contracts/Account.sol\":316:340  newBalance >= oldBalance */\n      lt\n      iszero\n        /* \"contracts/Account.sol\":308:356  require(newBalance >= oldBalance, \"Overflow!!!\") */\n      tag_36\n      jumpi\n      mload(0x40)\n      0x08c379a000000000000000000000000000000000000000000000000000000000\n      dup2\n      mstore\n      0x04\n      add\n      tag_37\n      swap1\n      tag_38\n      jump\t// in\n    tag_37:\n      mload(0x40)\n      dup1\n      swap2\n      sub\n      swap1\n      revert\n    tag_36:\n        /* \"contracts/Account.sol\":376:386  newBalance */\n      dup1\n        /* \"contracts/Account.sol\":366:373  balance */\n      0x00\n        /* \"contracts/Account.sol\":366:386  balance = newBalance */\n      dup2\n      swap1\n      sstore\n      pop\n        /* \"contracts/Account.sol\":414:424  oldBalance */\n      dup2\n        /* \"contracts/Account.sol\":403:410  balance */\n      sload(0x00)\n        /* \"contracts/Account.sol\":403:424  balance >= oldBalance */\n      lt\n      iszero\n        /* \"contracts/Account.sol\":396:425  assert(balance >= oldBalance) */\n      tag_39\n      jumpi\n      tag_40\n      tag_32\n      jump\t// in\n    tag_40:\n    tag_39:\n        /* \"contracts/Account.sol\":211:432  {... */\n      pop\n      pop\n        /* \"contracts/Account.sol\":170:432  function deposit(uint256 _amount) public {... */\n      pop\n      jump\t// out\n        /* \"contracts/Account.sol\":113:159  uint256 public constant MAX_UINT = 2 ** 256 -1 */\n    tag_19:\n        /* \"contracts/Account.sol\":148:159  2 ** 256 -1 */\n      0xffffffffffffffffffffffffffffffffffffffffffffffffffffffffffffffff\n        /* \"contracts/Account.sol\":113:159  uint256 public constant MAX_UINT = 2 ** 256 -1 */\n      dup2\n      jump\t// out\n        /* \"#utility.yul\":88:205   */\n    tag_42:\n        /* \"#utility.yul\":197:198   */\n      0x00\n        /* \"#utility.yul\":194:195   */\n      dup1\n        /* \"#utility.yul\":187:199   */\n      revert\n        /* \"#utility.yul\":334:411   */\n    tag_44:\n        /* \"#utility.yul\":371:378   */\n      0x00\n        /* \"#utility.yul\":400:405   */\n      dup2\n        /* \"#utility.yul\":389:405   */\n      swap1\n      pop\n        /* \"#utility.yul\":334:411   */\n      swap2\n      swap1\n      pop\n      jump\t// out\n        /* \"#utility.yul\":417:539   */\n    tag_45:\n        /* \"#utility.yul\":490:514   */\n      tag_62\n        /* \"#utility.yul\":508:513   */\n      dup2\n        /* \"#utility.yul\":490:514   */\n      tag_44\n      jump\t// in\n    tag_62:\n        /* \"#utility.yul\":483:488   */\n      dup2\n        /* \"#utility.yul\":480:515   */\n      eq\n        /* \"#utility.yul\":470:533   */\n      tag_63\n      jumpi\n        /* \"#utility.yul\":529:530   */\n      0x00\n        /* \"#utility.yul\":526:527   */\n      dup1\n        /* \"#utility.yul\":519:531   */\n      revert\n        /* \"#utility.yul\":470:533   */\n    tag_63:\n        /* \"#utility.yul\":417:539   */\n      pop\n      jump\t// out\n        /* \"#utility.yul\":545:684   */\n    tag_46:\n        /* \"#utility.yul\":591:596   */\n      0x00\n        /* \"#utility.yul\":629:635   */\n      dup2\n        /* \"#utility.yul\":616:636   */\n      calldataload\n        /* \"#utility.yul\":607:636   */\n      swap1\n      pop\n        /* \"#utility.yul\":645:678   */\n      tag_65\n        /* \"#utility.yul\":672:677   */\n      dup2\n        /* \"#utility.yul\":645:678   */\n      tag_45\n      jump\t// in\n    tag_65:\n        /* \"#utility.yul\":545:684   */\n      swap3\n      swap2\n      pop\n      pop\n      jump\t// out\n        /* \"#utility.yul\":690:1019   */\n    tag_9:\n        /* \"#utility.yul\":749:755   */\n      0x00\n        /* \"#utility.yul\":798:800   */\n      0x20\n        /* \"#utility.yul\":786:795   */\n      dup3\n        /* \"#utility.yul\":777:784   */\n      dup5\n        /* \"#utility.yul\":773:796   */\n      sub\n        /* \"#utility.yul\":769:801   */\n      slt\n        /* \"#utility.yul\":766:885   */\n      iszero\n      tag_67\n      jumpi\n        /* \"#utility.yul\":804:883   */\n      tag_68\n      tag_42\n      jump\t// in\n    tag_68:\n        /* \"#utility.yul\":766:885   */\n    tag_67:\n        /* \"#utility.yul\":924:925   */\n      0x00\n        /* \"#utility.yul\":949:1002   */\n      tag_69\n        /* \"#utility.yul\":994:1001   */\n      dup5\n        /* \"#utility.yul\":985:991   */\n      dup3\n        /* \"#utility.yul\":974:983   */\n      dup6\n        /* \"#utility.yul\":970:992   */\n      add\n        /* \"#utility.yul\":949:1002   */\n      tag_46\n      jump\t// in\n    tag_69:\n        /* \"#utility.yul\":939:1002   */\n      swap2\n      pop\n        /* \"#utility.yul\":895:1012   */\n      pop\n        /* \"#utility.yul\":690:1019   */\n      swap3\n      swap2\n      pop\n      pop\n      jump\t// out\n        /* \"#utility.yul\":1025:1143   */\n    tag_47:\n        /* \"#utility.yul\":1112:1136   */\n      tag_71\n        /* \"#utility.yul\":1130:1135   */\n      dup2\n        /* \"#utility.yul\":1112:1136   */\n      tag_44\n      jump\t// in\n    tag_71:\n        /* \"#utility.yul\":1107:1110   */\n      dup3\n        /* \"#utility.yul\":1100:1137   */\n      mstore\n        /* \"#utility.yul\":1025:1143   */\n      pop\n      pop\n      jump\t// out\n        /* \"#utility.yul\":1149:1371   */\n    tag_14:\n        /* \"#utility.yul\":1242:1246   */\n      0x00\n        /* \"#utility.yul\":1280:1282   */\n      0x20\n        /* \"#utility.yul\":1269:1278   */\n      dup3\n        /* \"#utility.yul\":1265:1283   */\n      add\n        /* \"#utility.yul\":1257:1283   */\n      swap1\n      pop\n        /* \"#utility.yul\":1293:1364   */\n      tag_73\n        /* \"#utility.yul\":1361:1362   */\n      0x00\n        /* \"#utility.yul\":1350:1359   */\n      dup4\n        /* \"#utility.yul\":1346:1363   */\n      add\n        /* \"#utility.yul\":1337:1343   */\n      dup5\n        /* \"#utility.yul\":1293:1364   */\n      tag_47\n      jump\t// in\n    tag_73:\n        /* \"#utility.yul\":1149:1371   */\n      swap3\n      swap2\n      pop\n      pop\n      jump\t// out\n        /* \"#utility.yul\":1377:1546   */\n    tag_48:\n        /* \"#utility.yul\":1461:1472   */\n      0x00\n        /* \"#utility.yul\":1495:1501   */\n      dup3\n        /* \"#utility.yul\":1490:1493   */\n      dup3\n        /* \"#utility.yul\":1483:1502   */\n      mstore\n        /* \"#utility.yul\":1535:1539   */\n      0x20\n        /* \"#utility.yul\":1530:1533   */\n      dup3\n        /* \"#utility.yul\":1526:1540   */\n      add\n        /* \"#utility.yul\":1511:1540   */\n      swap1\n      pop\n        /* \"#utility.yul\":1377:1546   */\n      swap3\n      swap2\n      pop\n      pop\n      jump\t// out\n        /* \"#utility.yul\":1552:1714   */\n    tag_49:\n        /* \"#utility.yul\":1692:1706   */\n      0x556e646572666c6f772121210000000000000000000000000000000000000000\n        /* \"#utility.yul\":1688:1689   */\n      0x00\n        /* \"#utility.yul\":1680:1686   */\n      dup3\n        /* \"#utility.yul\":1676:1690   */\n      add\n        /* \"#utility.yul\":1669:1707   */\n      mstore\n        /* \"#utility.yul\":1552:1714   */\n      pop\n      jump\t// out\n        /* \"#utility.yul\":1720:2086   */\n    tag_50:\n        /* \"#utility.yul\":1862:1865   */\n      0x00\n        /* \"#utility.yul\":1883:1950   */\n      tag_77\n        /* \"#utility.yul\":1947:1949   */\n      0x0c\n        /* \"#utility.yul\":1942:1945   */\n      dup4\n        /* \"#utility.yul\":1883:1950   */\n      tag_48\n      jump\t// in\n    tag_77:\n        /* \"#utility.yul\":1876:1950   */\n      swap2\n      pop\n        /* \"#utility.yul\":1959:2052   */\n      tag_78\n        /* \"#utility.yul\":2048:2051   */\n      dup3\n        /* \"#utility.yul\":1959:2052   */\n      tag_49\n      jump\t// in\n    tag_78:\n        /* \"#utility.yul\":2077:2079   */\n      0x20\n        /* \"#utility.yul\":2072:2075   */\n      dup3\n        /* \"#utility.yul\":2068:2080   */\n      add\n        /* \"#utility.yul\":2061:2080   */\n      swap1\n      pop\n        /* \"#utility.yul\":1720:2086   */\n      swap2\n      swap1\n      pop\n      jump\t// out\n        /* \"#utility.yul\":2092:2511   */\n    tag_24:\n        /* \"#utility.yul\":2258:2262   */\n      0x00\n        /* \"#utility.yul\":2296:2298   */\n      0x20\n        /* \"#utility.yul\":2285:2294   */\n      dup3\n        /* \"#utility.yul\":2281:2299   */\n      add\n        /* \"#utility.yul\":2273:2299   */\n      swap1\n      pop\n        /* \"#utility.yul\":2345:2354   */\n      dup2\n        /* \"#utility.yul\":2339:2343   */\n      dup2\n        /* \"#utility.yul\":2335:2355   */\n      sub\n        /* \"#utility.yul\":2331:2332   */\n      0x00\n        /* \"#utility.yul\":2320:2329   */\n      dup4\n        /* \"#utility.yul\":2316:2333   */\n      add\n        /* \"#utility.yul\":2309:2356   */\n      mstore\n        /* \"#utility.yul\":2373:2504   */\n      tag_80\n        /* \"#utility.yul\":2499:2503   */\n      dup2\n        /* \"#utility.yul\":2373:2504   */\n      tag_50\n      jump\t// in\n    tag_80:\n        /* \"#utility.yul\":2365:2504   */\n      swap1\n      pop\n        /* \"#utility.yul\":2092:2511   */\n      swap2\n      swap1\n      pop\n      jump\t// out\n        /* \"#utility.yul\":2517:2676   */\n    tag_51:\n        /* \"#utility.yul\":2657:2668   */\n      0x556e646572666c6f770000000000000000000000000000000000000000000000\n        /* \"#utility.yul\":2653:2654   */\n      0x00\n        /* \"#utility.yul\":2645:2651   */\n      dup3\n        /* \"#utility.yul\":2641:2655   */\n      add\n        /* \"#utility.yul\":2634:2669   */\n      mstore\n        /* \"#utility.yul\":2517:2676   */\n      pop\n      jump\t// out\n        /* \"#utility.yul\":2682:3047   */\n    tag_52:\n        /* \"#utility.yul\":2824:2827   */\n      0x00\n        /* \"#utility.yul\":2845:2911   */\n      tag_83\n        /* \"#utility.yul\":2909:2910   */\n      0x09\n        /* \"#utility.yul\":2904:2907   */\n      dup4\n        /* \"#utility.yul\":2845:2911   */\n      tag_48\n      jump\t// in\n    tag_83:\n        /* \"#utility.yul\":2838:2911   */\n      swap2\n      pop\n        /* \"#utility.yul\":2920:3013   */\n      tag_84\n        /* \"#utility.yul\":3009:3012   */\n      dup3\n        /* \"#utility.yul\":2920:3013   */\n      tag_51\n      jump\t// in\n    tag_84:\n        /* \"#utility.yul\":3038:3040   */\n      0x20\n        /* \"#utility.yul\":3033:3036   */\n      dup3\n        /* \"#utility.yul\":3029:3041   */\n      add\n        /* \"#utility.yul\":3022:3041   */\n      swap1\n      pop\n        /* \"#utility.yul\":2682:3047   */\n      swap2\n      swap1\n      pop\n      jump\t// out\n        /* \"#utility.yul\":3053:3472   */\n    tag_27:\n        /* \"#utility.yul\":3219:3223   */\n      0x00\n        /* \"#utility.yul\":3257:3259   */\n      0x20\n        /* \"#utility.yul\":3246:3255   */\n      dup3\n        /* \"#utility.yul\":3242:3260   */\n      add\n        /* \"#utility.yul\":3234:3260   */\n      swap1\n      pop\n        /* \"#utility.yul\":3306:3315   */\n      dup2\n        /* \"#utility.yul\":3300:3304   */\n      dup2\n        /* \"#utility.yul\":3296:3316   */\n      sub\n        /* \"#utility.yul\":3292:3293   */\n      0x00\n        /* \"#utility.yul\":3281:3290   */\n      dup4\n        /* \"#utility.yul\":3277:3294   */\n      add\n        /* \"#utility.yul\":3270:3317   */\n      mstore\n        /* \"#utility.yul\":3334:3465   */\n      tag_86\n        /* \"#utility.yul\":3460:3464   */\n      dup2\n        /* \"#utility.yul\":3334:3465   */\n      tag_52\n      jump\t// in\n    tag_86:\n        /* \"#utility.yul\":3326:3465   */\n      swap1\n      pop\n        /* \"#utility.yul\":3053:3472   */\n      swap2\n      swap1\n      pop\n      jump\t// out\n        /* \"#utility.yul\":3478:3658   */\n    tag_53:\n        /* \"#utility.yul\":3526:3603   */\n      0x4e487b7100000000000000000000000000000000000000000000000000000000\n        /* \"#utility.yul\":3523:3524   */\n      0x00\n        /* \"#utility.yul\":3516:3604   */\n      mstore\n        /* \"#utility.yul\":3623:3627   */\n      0x11\n        /* \"#utility.yul\":3620:3621   */\n      0x04\n        /* \"#utility.yul\":3613:3628   */\n      mstore\n        /* \"#utility.yul\":3647:3651   */\n      0x24\n        /* \"#utility.yul\":3644:3645   */\n      0x00\n        /* \"#utility.yul\":3637:3652   */\n      revert\n        /* \"#utility.yul\":3664:3858   */\n    tag_29:\n        /* \"#utility.yul\":3704:3708   */\n      0x00\n        /* \"#utility.yul\":3724:3744   */\n      tag_89\n        /* \"#utility.yul\":3742:3743   */\n      dup3\n        /* \"#utility.yul\":3724:3744   */\n      tag_44\n      jump\t// in\n    tag_89:\n        /* \"#utility.yul\":3719:3744   */\n      swap2\n      pop\n        /* \"#utility.yul\":3758:3778   */\n      tag_90\n        /* \"#utility.yul\":3776:3777   */\n      dup4\n        /* \"#utility.yul\":3758:3778   */\n      tag_44\n      jump\t// in\n    tag_90:\n        /* \"#utility.yul\":3753:3778   */\n      swap3\n      pop\n        /* \"#utility.yul\":3802:3803   */\n      dup3\n        /* \"#utility.yul\":3799:3800   */\n      dup3\n        /* \"#utility.yul\":3795:3804   */\n      sub\n        /* \"#utility.yul\":3787:3804   */\n      swap1\n      pop\n        /* \"#utility.yul\":3826:3827   */\n      dup2\n        /* \"#utility.yul\":3820:3824   */\n      dup2\n        /* \"#utility.yul\":3817:3828   */\n      gt\n        /* \"#utility.yul\":3814:3851   */\n      iszero\n      tag_91\n      jumpi\n        /* \"#utility.yul\":3831:3849   */\n      tag_92\n      tag_53\n      jump\t// in\n    tag_92:\n        /* \"#utility.yul\":3814:3851   */\n    tag_91:\n        /* \"#utility.yul\":3664:3858   */\n      swap3\n      swap2\n      pop\n      pop\n      jump\t// out\n        /* \"#utility.yul\":3864:4044   */\n    tag_32:\n        /* \"#utility.yul\":3912:3989   */\n      0x4e487b7100000000000000000000000000000000000000000000000000000000\n        /* \"#utility.yul\":3909:3910   */\n      0x00\n        /* \"#utility.yul\":3902:3990   */\n      mstore\n        /* \"#utility.yul\":4009:4013   */\n      0x01\n        /* \"#utility.yul\":4006:4007   */\n      0x04\n        /* \"#utility.yul\":3999:4014   */\n      mstore\n        /* \"#utility.yul\":4033:4037   */\n      0x24\n        /* \"#utility.yul\":4030:4031   */\n      0x00\n        /* \"#utility.yul\":4023:4038   */\n      revert\n        /* \"#utility.yul\":4050:4241   */\n    tag_35:\n        /* \"#utility.yul\":4090:4093   */\n      0x00\n        /* \"#utility.yul\":4109:4129   */\n      tag_95\n        /* \"#utility.yul\":4127:4128   */\n      dup3\n        /* \"#utility.yul\":4109:4129   */\n      tag_44\n      jump\t// in\n    tag_95:\n        /* \"#utility.yul\":4104:4129   */\n      swap2\n      pop\n        /* \"#utility.yul\":4143:4163   */\n      tag_96\n        /* \"#utility.yul\":4161:4162   */\n      dup4\n        /* \"#utility.yul\":4143:4163   */\n      tag_44\n      jump\t// in\n    tag_96:\n        /* \"#utility.yul\":4138:4163   */\n      swap3\n      pop\n        /* \"#utility.yul\":4186:4187   */\n      dup3\n        /* \"#utility.yul\":4183:4184   */\n      dup3\n        /* \"#utility.yul\":4179:4188   */\n      add\n        /* \"#utility.yul\":4172:4188   */\n      swap1\n      pop\n        /* \"#utility.yul\":4207:4210   */\n      dup1\n        /* \"#utility.yul\":4204:4205   */\n      dup3\n        /* \"#utility.yul\":4201:4211   */\n      gt\n        /* \"#utility.yul\":4198:4234   */\n      iszero\n      tag_97\n      jumpi\n        /* \"#utility.yul\":4214:4232   */\n      tag_98\n      tag_53\n      jump\t// in\n    tag_98:\n        /* \"#utility.yul\":4198:4234   */\n    tag_97:\n        /* \"#utility.yul\":4050:4241   */\n      swap3\n      swap2\n      pop\n      pop\n      jump\t// out\n        /* \"#utility.yul\":4247:4408   */\n    tag_54:\n        /* \"#utility.yul\":4387:4400   */\n      0x4f766572666c6f77212121000000000000000000000000000000000000000000\n        /* \"#utility.yul\":4383:4384   */\n      0x00\n        /* \"#utility.yul\":4375:4381   */\n      dup3\n        /* \"#utility.yul\":4371:4385   */\n      add\n        /* \"#utility.yul\":4364:4401   */\n      mstore\n        /* \"#utility.yul\":4247:4408   */\n      pop\n      jump\t// out\n        /* \"#utility.yul\":4414:4780   */\n    tag_55:\n        /* \"#utility.yul\":4556:4559   */\n      0x00\n        /* \"#utility.yul\":4577:4644   */\n      tag_101\n        /* \"#utility.yul\":4641:4643   */\n      0x0b\n        /* \"#utility.yul\":4636:4639   */\n      dup4\n        /* \"#utility.yul\":4577:4644   */\n      tag_48\n      jump\t// in\n    tag_101:\n        /* \"#utility.yul\":4570:4644   */\n      swap2\n      pop\n        /* \"#utility.yul\":4653:4746   */\n      tag_102\n        /* \"#utility.yul\":4742:4745   */\n      dup3\n        /* \"#utility.yul\":4653:4746   */\n      tag_54\n      jump\t// in\n    tag_102:\n        /* \"#utility.yul\":4771:4773   */\n      0x20\n        /* \"#utility.yul\":4766:4769   */\n      dup3\n        /* \"#utility.yul\":4762:4774   */\n      add\n        /* \"#utility.yul\":4755:4774   */\n      swap1\n      pop\n        /* \"#utility.yul\":4414:4780   */\n      swap2\n      swap1\n      pop\n      jump\t// out\n        /* \"#utility.yul\":4786:5205   */\n    tag_38:\n        /* \"#utility.yul\":4952:4956   */\n      0x00\n        /* \"#utility.yul\":4990:4992   */\n      0x20\n        /* \"#utility.yul\":4979:4988   */\n      dup3\n        /* \"#utility.yul\":4975:4993   */\n      add\n        /* \"#utility.yul\":4967:4993   */\n      swap1\n      pop\n        /* \"#utility.yul\":5039:5048   */\n      dup2\n        /* \"#utility.yul\":5033:5037   */\n      dup2\n        /* \"#utility.yul\":5029:5049   */\n      sub\n        /* \"#utility.yul\":5025:5026   */\n      0x00\n        /* \"#utility.yul\":5014:5023   */\n      dup4\n        /* \"#utility.yul\":5010:5027   */\n      add\n        /* \"#utility.yul\":5003:5050   */\n      mstore\n        /* \"#utility.yul\":5067:5198   */\n      tag_104\n        /* \"#utility.yul\":5193:5197   */\n      dup2\n        /* \"#utility.yul\":5067:5198   */\n      tag_55\n      jump\t// in\n    tag_104:\n        /* \"#utility.yul\":5059:5198   */\n      swap1\n      pop\n        /* \"#utility.yul\":4786:5205   */\n      swap2\n      swap1\n      pop\n      jump\t// out\n\n    auxdata: 0xa2646970667358221220906b8498421ebb08d46b7a262e52174b8da41300cdc4313037f398ea34d8690464736f6c634300081a0033\n}\n",
				"bytecode": {
					"linkReferences": {},
					"object": "6080604052348015600e575f80fd5b506104dd8061001c5f395ff3fe608060405234801561000f575f80fd5b506004361061004a575f3560e01c80632e1a7d4d1461004e578063b69ef8a81461006a578063b6b55f2514610088578063e5b5019a146100a4575b5f80fd5b6100686004803603810190610063919061024c565b6100c2565b005b610072610177565b60405161007f9190610286565b60405180910390f35b6100a2600480360381019061009d919061024c565b61017c565b005b6100ac6101f1565b6040516100b99190610286565b60405180910390f35b5f80549050815f54101561010b576040517f08c379a0000000000000000000000000000000000000000000000000000000008152600401610102906102f9565b60405180910390fd5b815f54101561014f576040517f08c379a000000000000000000000000000000000000000000000000000000000815260040161014690610361565b60405180910390fd5b815f5461015c91906103ac565b5f81905550805f541115610173576101726103df565b5b5050565b5f5481565b5f805490505f825f5461018f919061040c565b9050818110156101d4576040517f08c379a00000000000000000000000000000000000000000000000000000000081526004016101cb90610489565b60405180910390fd5b805f81905550815f5410156101ec576101eb6103df565b5b505050565b7fffffffffffffffffffffffffffffffffffffffffffffffffffffffffffffffff81565b5f80fd5b5f819050919050565b61022b81610219565b8114610235575f80fd5b50565b5f8135905061024681610222565b92915050565b5f6020828403121561026157610260610215565b5b5f61026e84828501610238565b91505092915050565b61028081610219565b82525050565b5f6020820190506102995f830184610277565b92915050565b5f82825260208201905092915050565b7f556e646572666c6f7721212100000000000000000000000000000000000000005f82015250565b5f6102e3600c8361029f565b91506102ee826102af565b602082019050919050565b5f6020820190508181035f830152610310816102d7565b9050919050565b7f556e646572666c6f7700000000000000000000000000000000000000000000005f82015250565b5f61034b60098361029f565b915061035682610317565b602082019050919050565b5f6020820190508181035f8301526103788161033f565b9050919050565b7f4e487b71000000000000000000000000000000000000000000000000000000005f52601160045260245ffd5b5f6103b682610219565b91506103c183610219565b92508282039050818111156103d9576103d861037f565b5b92915050565b7f4e487b71000000000000000000000000000000000000000000000000000000005f52600160045260245ffd5b5f61041682610219565b915061042183610219565b92508282019050808211156104395761043861037f565b5b92915050565b7f4f766572666c6f772121210000000000000000000000000000000000000000005f82015250565b5f610473600b8361029f565b915061047e8261043f565b602082019050919050565b5f6020820190508181035f8301526104a081610467565b905091905056fea2646970667358221220906b8498421ebb08d46b7a262e52174b8da41300cdc4313037f398ea34d8690464736f6c634300081a0033",
					"opcodes": "PUSH1 0x80 PUSH1 0x40 MSTORE CALLVALUE DUP1 ISZERO PUSH1 0xE JUMPI PUSH0 DUP1 REVERT JUMPDEST POP PUSH2 0x4DD DUP1 PUSH2 0x1C PUSH0 CODECOPY PUSH0 RETURN INVALID PUSH1 0x80 PUSH1 0x40 MSTORE CALLVALUE DUP1 ISZERO PUSH2 0xF JUMPI PUSH0 DUP1 REVERT JUMPDEST POP PUSH1 0x4 CALLDATASIZE LT PUSH2 0x4A JUMPI PUSH0 CALLDATALOAD PUSH1 0xE0 SHR DUP1 PUSH4 0x2E1A7D4D EQ PUSH2 0x4E JUMPI DUP1 PUSH4 0xB69EF8A8 EQ PUSH2 0x6A JUMPI DUP1 PUSH4 0xB6B55F25 EQ PUSH2 0x88 JUMPI DUP1 PUSH4 0xE5B5019A EQ PUSH2 0xA4 JUMPI JUMPDEST PUSH0 DUP1 REVERT JUMPDEST PUSH2 0x68 PUSH1 0x4 DUP1 CALLDATASIZE SUB DUP2 ADD SWAP1 PUSH2 0x63 SWAP2 SWAP1 PUSH2 0x24C JUMP JUMPDEST PUSH2 0xC2 JUMP JUMPDEST STOP JUMPDEST PUSH2 0x72 PUSH2 0x177 JUMP JUMPDEST PUSH1 0x40 MLOAD PUSH2 0x7F SWAP2 SWAP1 PUSH2 0x286 JUMP JUMPDEST PUSH1 0x40 MLOAD DUP1 SWAP2 SUB SWAP1 RETURN JUMPDEST PUSH2 0xA2 PUSH1 0x4 DUP1 CALLDATASIZE SUB DUP2 ADD SWAP1 PUSH2 0x9D SWAP2 SWAP1 PUSH2 0x24C JUMP JUMPDEST PUSH2 0x17C JUMP JUMPDEST STOP JUMPDEST PUSH2 0xAC PUSH2 0x1F1 JUMP JUMPDEST PUSH1 0x40 MLOAD PUSH2 0xB9 SWAP2 SWAP1 PUSH2 0x286 JUMP JUMPDEST PUSH1 0x40 MLOAD DUP1 SWAP2 SUB SWAP1 RETURN JUMPDEST PUSH0 DUP1 SLOAD SWAP1 POP DUP2 PUSH0 SLOAD LT ISZERO PUSH2 0x10B JUMPI PUSH1 0x40 MLOAD PUSH32 0x8C379A000000000000000000000000000000000000000000000000000000000 DUP2 MSTORE PUSH1 0x4 ADD PUSH2 0x102 SWAP1 PUSH2 0x2F9 JUMP JUMPDEST PUSH1 0x40 MLOAD DUP1 SWAP2 SUB SWAP1 REVERT JUMPDEST DUP2 PUSH0 SLOAD LT ISZERO PUSH2 0x14F JUMPI PUSH1 0x40 MLOAD PUSH32 0x8C379A000000000000000000000000000000000000000000000000000000000 DUP2 MSTORE PUSH1 0x4 ADD PUSH2 0x146 SWAP1 PUSH2 0x361 JUMP JUMPDEST PUSH1 0x40 MLOAD DUP1 SWAP2 SUB SWAP1 REVERT JUMPDEST DUP2 PUSH0 SLOAD PUSH2 0x15C SWAP2 SWAP1 PUSH2 0x3AC JUMP JUMPDEST PUSH0 DUP2 SWAP1 SSTORE POP DUP1 PUSH0 SLOAD GT ISZERO PUSH2 0x173 JUMPI PUSH2 0x172 PUSH2 0x3DF JUMP JUMPDEST JUMPDEST POP POP JUMP JUMPDEST PUSH0 SLOAD DUP2 JUMP JUMPDEST PUSH0 DUP1 SLOAD SWAP1 POP PUSH0 DUP3 PUSH0 SLOAD PUSH2 0x18F SWAP2 SWAP1 PUSH2 0x40C JUMP JUMPDEST SWAP1 POP DUP2 DUP2 LT ISZERO PUSH2 0x1D4 JUMPI PUSH1 0x40 MLOAD PUSH32 0x8C379A000000000000000000000000000000000000000000000000000000000 DUP2 MSTORE PUSH1 0x4 ADD PUSH2 0x1CB SWAP1 PUSH2 0x489 JUMP JUMPDEST PUSH1 0x40 MLOAD DUP1 SWAP2 SUB SWAP1 REVERT JUMPDEST DUP1 PUSH0 DUP2 SWAP1 SSTORE POP DUP2 PUSH0 SLOAD LT ISZERO PUSH2 0x1EC JUMPI PUSH2 0x1EB PUSH2 0x3DF JUMP JUMPDEST JUMPDEST POP POP POP JUMP JUMPDEST PUSH32 0xFFFFFFFFFFFFFFFFFFFFFFFFFFFFFFFFFFFFFFFFFFFFFFFFFFFFFFFFFFFFFFFF DUP2 JUMP JUMPDEST PUSH0 DUP1 REVERT JUMPDEST PUSH0 DUP2 SWAP1 POP SWAP2 SWAP1 POP JUMP JUMPDEST PUSH2 0x22B DUP2 PUSH2 0x219 JUMP JUMPDEST DUP2 EQ PUSH2 0x235 JUMPI PUSH0 DUP1 REVERT JUMPDEST POP JUMP JUMPDEST PUSH0 DUP2 CALLDATALOAD SWAP1 POP PUSH2 0x246 DUP2 PUSH2 0x222 JUMP JUMPDEST SWAP3 SWAP2 POP POP JUMP JUMPDEST PUSH0 PUSH1 0x20 DUP3 DUP5 SUB SLT ISZERO PUSH2 0x261 JUMPI PUSH2 0x260 PUSH2 0x215 JUMP JUMPDEST JUMPDEST PUSH0 PUSH2 0x26E DUP5 DUP3 DUP6 ADD PUSH2 0x238 JUMP JUMPDEST SWAP2 POP POP SWAP3 SWAP2 POP POP JUMP JUMPDEST PUSH2 0x280 DUP2 PUSH2 0x219 JUMP JUMPDEST DUP3 MSTORE POP POP JUMP JUMPDEST PUSH0 PUSH1 0x20 DUP3 ADD SWAP1 POP PUSH2 0x299 PUSH0 DUP4 ADD DUP5 PUSH2 0x277 JUMP JUMPDEST SWAP3 SWAP2 POP POP JUMP JUMPDEST PUSH0 DUP3 DUP3 MSTORE PUSH1 0x20 DUP3 ADD SWAP1 POP SWAP3 SWAP2 POP POP JUMP JUMPDEST PUSH32 0x556E646572666C6F772121210000000000000000000000000000000000000000 PUSH0 DUP3 ADD MSTORE POP JUMP JUMPDEST PUSH0 PUSH2 0x2E3 PUSH1 0xC DUP4 PUSH2 0x29F JUMP JUMPDEST SWAP2 POP PUSH2 0x2EE DUP3 PUSH2 0x2AF JUMP JUMPDEST PUSH1 0x20 DUP3 ADD SWAP1 POP SWAP2 SWAP1 POP JUMP JUMPDEST PUSH0 PUSH1 0x20 DUP3 ADD SWAP1 POP DUP2 DUP2 SUB PUSH0 DUP4 ADD MSTORE PUSH2 0x310 DUP2 PUSH2 0x2D7 JUMP JUMPDEST SWAP1 POP SWAP2 SWAP1 POP JUMP JUMPDEST PUSH32 0x556E646572666C6F770000000000000000000000000000000000000000000000 PUSH0 DUP3 ADD MSTORE POP JUMP JUMPDEST PUSH0 PUSH2 0x34B PUSH1 0x9 DUP4 PUSH2 0x29F JUMP JUMPDEST SWAP2 POP PUSH2 0x356 DUP3 PUSH2 0x317 JUMP JUMPDEST PUSH1 0x20 DUP3 ADD SWAP1 POP SWAP2 SWAP1 POP JUMP JUMPDEST PUSH0 PUSH1 0x20 DUP3 ADD SWAP1 POP DUP2 DUP2 SUB PUSH0 DUP4 ADD MSTORE PUSH2 0x378 DUP2 PUSH2 0x33F JUMP JUMPDEST SWAP1 POP SWAP2 SWAP1 POP JUMP JUMPDEST PUSH32 0x4E487B7100000000000000000000000000000000000000000000000000000000 PUSH0 MSTORE PUSH1 0x11 PUSH1 0x4 MSTORE PUSH1 0x24 PUSH0 REVERT JUMPDEST PUSH0 PUSH2 0x3B6 DUP3 PUSH2 0x219 JUMP JUMPDEST SWAP2 POP PUSH2 0x3C1 DUP4 PUSH2 0x219 JUMP JUMPDEST SWAP3 POP DUP3 DUP3 SUB SWAP1 POP DUP2 DUP2 GT ISZERO PUSH2 0x3D9 JUMPI PUSH2 0x3D8 PUSH2 0x37F JUMP JUMPDEST JUMPDEST SWAP3 SWAP2 POP POP JUMP JUMPDEST PUSH32 0x4E487B7100000000000000000000000000000000000000000000000000000000 PUSH0 MSTORE PUSH1 0x1 PUSH1 0x4 MSTORE PUSH1 0x24 PUSH0 REVERT JUMPDEST PUSH0 PUSH2 0x416 DUP3 PUSH2 0x219 JUMP JUMPDEST SWAP2 POP PUSH2 0x421 DUP4 PUSH2 0x219 JUMP JUMPDEST SWAP3 POP DUP3 DUP3 ADD SWAP1 POP DUP1 DUP3 GT ISZERO PUSH2 0x439 JUMPI PUSH2 0x438 PUSH2 0x37F JUMP JUMPDEST JUMPDEST SWAP3 SWAP2 POP POP JUMP JUMPDEST PUSH32 0x4F766572666C6F77212121000000000000000000000000000000000000000000 PUSH0 DUP3 ADD MSTORE POP JUMP JUMPDEST PUSH0 PUSH2 0x473 PUSH1 0xB DUP4 PUSH2 0x29F JUMP JUMPDEST SWAP2 POP PUSH2 0x47E DUP3 PUSH2 0x43F JUMP JUMPDEST PUSH1 0x20 DUP3 ADD SWAP1 POP SWAP2 SWAP1 POP JUMP JUMPDEST PUSH0 PUSH1 0x20 DUP3 ADD SWAP1 POP DUP2 DUP2 SUB PUSH0 DUP4 ADD MSTORE PUSH2 0x4A0 DUP2 PUSH2 0x467 JUMP JUMPDEST SWAP1 POP SWAP2 SWAP1 POP JUMP INVALID LOG2 PUSH5 0x6970667358 0x22 SLT KECCAK256 SWAP1 PUSH12 0x8498421EBB08D46B7A262E52 OR 0x4B DUP14 LOG4 SGT STOP 0xCD 0xC4 BALANCE ADDRESS CALLDATACOPY RETURN SWAP9 0xEA CALLVALUE 0xD8 PUSH10 0x464736F6C634300081A STOP CALLER "
				},
				"gasEstimates": {
					"creation": {
						"codeDepositCost": "249000",
						"executionCost": "285",
						"totalCost": "249285"
					},
					"external": {
						"MAX_UINT()": "369",
						"balance()": "2424",
						"deposit(uint256)": "infinite",
						"withdraw(uint256)": "infinite"
					}
				},
				"methodIdentifiers": {
					"MAX_UINT()": "e5b5019a",
					"balance()": "b69ef8a8",
					"deposit(uint256)": "b6b55f25",
					"withdraw(uint256)": "2e1a7d4d"
				}
			},
			"storageLayout": {
				"storage": [
					{
						"astId": 3,
						"contract": "contracts/Account.sol:Account",
						"label": "balance",
						"offset": 0,
						"slot": "0",
						"type": "t_uint256"
					}
				],
				"types": {
					"t_uint256": {
						"encoding": "inplace",
						"label": "uint256",
						"numberOfBytes": "32"
					}
				}
			},
			"userdoc": {
				"kind": "user",
				"methods": {},
				"version": 1
			}
		}
	}
}