{
	"data": {
		"bytecode": {
			"linkReferences": {},
			"object": "6080604052348015600e575f80fd5b506103a78061001c5f395ff3fe608060405234801561000f575f80fd5b506004361061007b575f3560e01c8063b1027dd111610059578063b1027dd1146100e9578063cf08fed5146100f3578063d826f88f14610111578063f1c900f41461011b5761007b565b806324b8ba5f1461007f5780636d4ce63c1461009b57806384c94d2e146100b9575b5f80fd5b61009960048036038101906100949190610234565b61014b565b005b6100a3610176565b6040516100b091906102d2565b60405180910390f35b6100d360048036038101906100ce919061031e565b61018a565b6040516100e091906102d2565b60405180910390f35b6100f16101a5565b005b6100fb6101d0565b60405161010891906102d2565b60405180910390f35b6101196101e0565b005b61013560048036038101906101309190610234565b6101f2565b6040516101429190610358565b60405180910390f35b805f806101000a81548160ff0219169083600581111561016e5761016d61025f565b5b021790555050565b5f805f9054906101000a900460ff16905090565b5f81600581111561019e5761019d61025f565b5b9050919050565b60055f806101000a81548160ff021916908360058111156101c9576101c861025f565b5b0217905550565b5f8054906101000a900460ff1681565b5f806101000a81549060ff0219169055565b5f8160058111156102065761020561025f565b5b9050919050565b5f80fd5b6006811061021d575f80fd5b50565b5f8135905061022e81610211565b92915050565b5f602082840312156102495761024861020d565b5b5f61025684828501610220565b91505092915050565b7f4e487b71000000000000000000000000000000000000000000000000000000005f52602160045260245ffd5b6006811061029d5761029c61025f565b5b50565b5f8190506102ad8261028c565b919050565b5f6102bc826102a0565b9050919050565b6102cc816102b2565b82525050565b5f6020820190506102e55f8301846102c3565b92915050565b5f819050919050565b6102fd816102eb565b8114610307575f80fd5b50565b5f81359050610318816102f4565b92915050565b5f602082840312156103335761033261020d565b5b5f6103408482850161030a565b91505092915050565b610352816102eb565b82525050565b5f60208201905061036b5f830184610349565b9291505056fea26469706673582212208697f179255f73e001e39227fc36d0fba563ab6eb8c21c87d6a081babe11a59664736f6c634300081a0033",
			"opcodes": "PUSH1 0x80 PUSH1 0x40 MSTORE CALLVALUE DUP1 ISZERO PUSH1 0xE JUMPI PUSH0 DUP1 REVERT JUMPDEST POP PUSH2 0x3A7 DUP1 PUSH2 0x1C PUSH0 CODECOPY PUSH0 RETURN INVALID PUSH1 0x80 PUSH1 0x40 MSTORE CALLVALUE DUP1 ISZERO PUSH2 0xF JUMPI PUSH0 DUP1 REVERT JUMPDEST POP PUSH1 0x4 CALLDATASIZE LT PUSH2 0x7B JUMPI PUSH0 CALLDATALOAD PUSH1 0xE0 SHR DUP1 PUSH4 0xB1027DD1 GT PUSH2 0x59 JUMPI DUP1 PUSH4 0xB1027DD1 EQ PUSH2 0xE9 JUMPI DUP1 PUSH4 0xCF08FED5 EQ PUSH2 0xF3 JUMPI DUP1 PUSH4 0xD826F88F EQ PUSH2 0x111 JUMPI DUP1 PUSH4 0xF1C900F4 EQ PUSH2 0x11B JUMPI PUSH2 0x7B JUMP JUMPDEST DUP1 PUSH4 0x24B8BA5F EQ PUSH2 0x7F JUMPI DUP1 PUSH4 0x6D4CE63C EQ PUSH2 0x9B JUMPI DUP1 PUSH4 0x84C94D2E EQ PUSH2 0xB9 JUMPI JUMPDEST PUSH0 DUP1 REVERT JUMPDEST PUSH2 0x99 PUSH1 0x4 DUP1 CALLDATASIZE SUB DUP2 ADD SWAP1 PUSH2 0x94 SWAP2 SWAP1 PUSH2 0x234 JUMP JUMPDEST PUSH2 0x14B JUMP JUMPDEST STOP JUMPDEST PUSH2 0xA3 PUSH2 0x176 JUMP JUMPDEST PUSH1 0x40 MLOAD PUSH2 0xB0 SWAP2 SWAP1 PUSH2 0x2D2 JUMP JUMPDEST PUSH1 0x40 MLOAD DUP1 SWAP2 SUB SWAP1 RETURN JUMPDEST PUSH2 0xD3 PUSH1 0x4 DUP1 CALLDATASIZE SUB DUP2 ADD SWAP1 PUSH2 0xCE SWAP2 SWAP1 PUSH2 0x31E JUMP JUMPDEST PUSH2 0x18A JUMP JUMPDEST PUSH1 0x40 MLOAD PUSH2 0xE0 SWAP2 SWAP1 PUSH2 0x2D2 JUMP JUMPDEST PUSH1 0x40 MLOAD DUP1 SWAP2 SUB SWAP1 RETURN JUMPDEST PUSH2 0xF1 PUSH2 0x1A5 JUMP JUMPDEST STOP JUMPDEST PUSH2 0xFB PUSH2 0x1D0 JUMP JUMPDEST PUSH1 0x40 MLOAD PUSH2 0x108 SWAP2 SWAP1 PUSH2 0x2D2 JUMP JUMPDEST PUSH1 0x40 MLOAD DUP1 SWAP2 SUB SWAP1 RETURN JUMPDEST PUSH2 0x119 PUSH2 0x1E0 JUMP JUMPDEST STOP JUMPDEST PUSH2 0x135 PUSH1 0x4 DUP1 CALLDATASIZE SUB DUP2 ADD SWAP1 PUSH2 0x130 SWAP2 SWAP1 PUSH2 0x234 JUMP JUMPDEST PUSH2 0x1F2 JUMP JUMPDEST PUSH1 0x40 MLOAD PUSH2 0x142 SWAP2 SWAP1 PUSH2 0x358 JUMP JUMPDEST PUSH1 0x40 MLOAD DUP1 SWAP2 SUB SWAP1 RETURN JUMPDEST DUP1 PUSH0 DUP1 PUSH2 0x100 EXP DUP2 SLOAD DUP2 PUSH1 0xFF MUL NOT AND SWAP1 DUP4 PUSH1 0x5 DUP2 GT ISZERO PUSH2 0x16E JUMPI PUSH2 0x16D PUSH2 0x25F JUMP JUMPDEST JUMPDEST MUL OR SWAP1 SSTORE POP POP JUMP JUMPDEST PUSH0 DUP1 PUSH0 SWAP1 SLOAD SWAP1 PUSH2 0x100 EXP SWAP1 DIV PUSH1 0xFF AND SWAP1 POP SWAP1 JUMP JUMPDEST PUSH0 DUP2 PUSH1 0x5 DUP2 GT ISZERO PUSH2 0x19E JUMPI PUSH2 0x19D PUSH2 0x25F JUMP JUMPDEST JUMPDEST SWAP1 POP SWAP2 SWAP1 POP JUMP JUMPDEST PUSH1 0x5 PUSH0 DUP1 PUSH2 0x100 EXP DUP2 SLOAD DUP2 PUSH1 0xFF MUL NOT AND SWAP1 DUP4 PUSH1 0x5 DUP2 GT ISZERO PUSH2 0x1C9 JUMPI PUSH2 0x1C8 PUSH2 0x25F JUMP JUMPDEST JUMPDEST MUL OR SWAP1 SSTORE POP JUMP JUMPDEST PUSH0 DUP1 SLOAD SWAP1 PUSH2 0x100 EXP SWAP1 DIV PUSH1 0xFF AND DUP2 JUMP JUMPDEST PUSH0 DUP1 PUSH2 0x100 EXP DUP2 SLOAD SWAP1 PUSH1 0xFF MUL NOT AND SWAP1 SSTORE JUMP JUMPDEST PUSH0 DUP2 PUSH1 0x5 DUP2 GT ISZERO PUSH2 0x206 JUMPI PUSH2 0x205 PUSH2 0x25F JUMP JUMPDEST JUMPDEST SWAP1 POP SWAP2 SWAP1 POP JUMP JUMPDEST PUSH0 DUP1 REVERT JUMPDEST PUSH1 0x6 DUP2 LT PUSH2 0x21D JUMPI PUSH0 DUP1 REVERT JUMPDEST POP JUMP JUMPDEST PUSH0 DUP2 CALLDATALOAD SWAP1 POP PUSH2 0x22E DUP2 PUSH2 0x211 JUMP JUMPDEST SWAP3 SWAP2 POP POP JUMP JUMPDEST PUSH0 PUSH1 0x20 DUP3 DUP5 SUB SLT ISZERO PUSH2 0x249 JUMPI PUSH2 0x248 PUSH2 0x20D JUMP JUMPDEST JUMPDEST PUSH0 PUSH2 0x256 DUP5 DUP3 DUP6 ADD PUSH2 0x220 JUMP JUMPDEST SWAP2 POP POP SWAP3 SWAP2 POP POP JUMP JUMPDEST PUSH32 0x4E487B7100000000000000000000000000000000000000000000000000000000 PUSH0 MSTORE PUSH1 0x21 PUSH1 0x4 MSTORE PUSH1 0x24 PUSH0 REVERT JUMPDEST PUSH1 0x6 DUP2 LT PUSH2 0x29D JUMPI PUSH2 0x29C PUSH2 0x25F JUMP JUMPDEST JUMPDEST POP JUMP JUMPDEST PUSH0 DUP2 SWAP1 POP PUSH2 0x2AD DUP3 PUSH2 0x28C JUMP JUMPDEST SWAP2 SWAP1 POP JUMP JUMPDEST PUSH0 PUSH2 0x2BC DUP3 PUSH2 0x2A0 JUMP JUMPDEST SWAP1 POP SWAP2 SWAP1 POP JUMP JUMPDEST PUSH2 0x2CC DUP2 PUSH2 0x2B2 JUMP JUMPDEST DUP3 MSTORE POP POP JUMP JUMPDEST PUSH0 PUSH1 0x20 DUP3 ADD SWAP1 POP PUSH2 0x2E5 PUSH0 DUP4 ADD DUP5 PUSH2 0x2C3 JUMP JUMPDEST SWAP3 SWAP2 POP POP JUMP JUMPDEST PUSH0 DUP2 SWAP1 POP SWAP2 SWAP1 POP JUMP JUMPDEST PUSH2 0x2FD DUP2 PUSH2 0x2EB JUMP JUMPDEST DUP2 EQ PUSH2 0x307 JUMPI PUSH0 DUP1 REVERT JUMPDEST POP JUMP JUMPDEST PUSH0 DUP2 CALLDATALOAD SWAP1 POP PUSH2 0x318 DUP2 PUSH2 0x2F4 JUMP JUMPDEST SWAP3 SWAP2 POP POP JUMP JUMPDEST PUSH0 PUSH1 0x20 DUP3 DUP5 SUB SLT ISZERO PUSH2 0x333 JUMPI PUSH2 0x332 PUSH2 0x20D JUMP JUMPDEST JUMPDEST PUSH0 PUSH2 0x340 DUP5 DUP3 DUP6 ADD PUSH2 0x30A JUMP JUMPDEST SWAP2 POP POP SWAP3 SWAP2 POP POP JUMP JUMPDEST PUSH2 0x352 DUP2 PUSH2 0x2EB JUMP JUMPDEST DUP3 MSTORE POP POP JUMP JUMPDEST PUSH0 PUSH1 0x20 DUP3 ADD SWAP1 POP PUSH2 0x36B PUSH0 DUP4 ADD DUP5 PUSH2 0x349 JUMP JUMPDEST SWAP3 SWAP2 POP POP JUMP INVALID LOG2 PUSH5 0x6970667358 0x22 SLT KECCAK256 DUP7 SWAP8 CALL PUSH26 0x255F73E001E39227FC36D0FBA563AB6EB8C21C87D6A081BABE11 0xA5 SWAP7 PUSH5 0x736F6C6343 STOP ADDMOD BYTE STOP CALLER "
		},
		"gasEstimates": {
			"creation": {
				"codeDepositCost": "187000",
				"executionCost": "230",
				"totalCost": "187230"
			},
			"external": {
				"color()": "2573",
				"enumToUnit(uint8)": "643",
				"get()": "2584",
				"reset()": "24428",
				"set(uint8)": "24646",
				"toOrange()": "24429",
				"uintToEnum(uint256)": "758"
			}
		},
		"methodIdentifiers": {
			"color()": "cf08fed5",
			"enumToUnit(uint8)": "f1c900f4",
			"get()": "6d4ce63c",
			"reset()": "d826f88f",
			"set(uint8)": "24b8ba5f",
			"toOrange()": "b1027dd1",
			"uintToEnum(uint256)": "84c94d2e"
		}
	},
	"abi": [
		{
			"inputs": [],
			"name": "color",
			"outputs": [
				{
					"internalType": "enum Enum.Color",
					"name": "",
					"type": "uint8"
				}
			],
			"stateMutability": "view",
			"type": "function"
		},
		{
			"inputs": [
				{
					"internalType": "enum Enum.Color",
					"name": "_color",
					"type": "uint8"
				}
			],
			"name": "enumToUnit",
			"outputs": [
				{
					"internalType": "uint256",
					"name": "",
					"type": "uint256"
				}
			],
			"stateMutability": "pure",
			"type": "function"
		},
		{
			"inputs": [],
			"name": "get",
			"outputs": [
				{
					"internalType": "enum Enum.Color",
					"name": "",
					"type": "uint8"
				}
			],
			"stateMutability": "view",
			"type": "function"
		},
		{
			"inputs": [],
			"name": "reset",
			"outputs": [],
			"stateMutability": "nonpayable",
			"type": "function"
		},
		{
			"inputs": [
				{
					"internalType": "enum Enum.Color",
					"name": "_color",
					"type": "uint8"
				}
			],
			"name": "set",
			"outputs": [],
			"stateMutability": "nonpayable",
			"type": "function"
		},
		{
			"inputs": [],
			"name": "toOrange",
			"outputs": [],
			"stateMutability": "nonpayable",
			"type": "function"
		},
		{
			"inputs": [
				{
					"internalType": "uint256",
					"name": "i",
					"type": "uint256"
				}
			],
			"name": "uintToEnum",
			"outputs": [
				{
					"internalType": "enum Enum.Color",
					"name": "",
					"type": "uint8"
				}
			],
			"stateMutability": "pure",
			"type": "function"
		}
	]
}